{"contracts/CopperTokenV2.sol":{"CopperTokenV2":{"abi":[{"inputs":[{"internalType":"address","name":"_priceFeed","type":"address"}],"stateMutability":"nonpayable","type":"constructor"},{"inputs":[{"internalType":"address","name":"spender","type":"address"},{"internalType":"uint256","name":"allowance","type":"uint256"},{"internalType":"uint256","name":"needed","type":"uint256"}],"name":"ERC20InsufficientAllowance","type":"error"},{"inputs":[{"internalType":"address","name":"sender","type":"address"},{"internalType":"uint256","name":"balance","type":"uint256"},{"internalType":"uint256","name":"needed","type":"uint256"}],"name":"ERC20InsufficientBalance","type":"error"},{"inputs":[{"internalType":"address","name":"approver","type":"address"}],"name":"ERC20InvalidApprover","type":"error"},{"inputs":[{"internalType":"address","name":"receiver","type":"address"}],"name":"ERC20InvalidReceiver","type":"error"},{"inputs":[{"internalType":"address","name":"sender","type":"address"}],"name":"ERC20InvalidSender","type":"error"},{"inputs":[{"internalType":"address","name":"spender","type":"address"}],"name":"ERC20InvalidSpender","type":"error"},{"inputs":[{"internalType":"address","name":"owner","type":"address"}],"name":"OwnableInvalidOwner","type":"error"},{"inputs":[{"internalType":"address","name":"account","type":"address"}],"name":"OwnableUnauthorizedAccount","type":"error"},{"anonymous":false,"inputs":[{"indexed":true,"internalType":"address","name":"owner","type":"address"},{"indexed":true,"internalType":"address","name":"spender","type":"address"},{"indexed":false,"internalType":"uint256","name":"value","type":"uint256"}],"name":"Approval","type":"event"},{"anonymous":false,"inputs":[{"indexed":true,"internalType":"address","name":"to","type":"address"},{"indexed":false,"internalType":"uint256","name":"usdAmount","type":"uint256"},{"indexed":false,"internalType":"uint256","name":"tokenAmount","type":"uint256"}],"name":"Minted","type":"event"},{"anonymous":false,"inputs":[{"indexed":true,"internalType":"address","name":"previousOwner","type":"address"},{"indexed":true,"internalType":"address","name":"newOwner","type":"address"}],"name":"OwnershipTransferred","type":"event"},{"anonymous":false,"inputs":[{"indexed":false,"internalType":"uint256","name":"newPrice","type":"uint256"},{"indexed":false,"internalType":"uint256","name":"timestamp","type":"uint256"}],"name":"PriceUpdated","type":"event"},{"anonymous":false,"inputs":[{"indexed":false,"internalType":"uint256","name":"copperReserve","type":"uint256"},{"indexed":false,"internalType":"uint256","name":"usdtReserve","type":"uint256"}],"name":"ReservesUpdated","type":"event"},{"anonymous":false,"inputs":[{"indexed":true,"internalType":"address","name":"from","type":"address"},{"indexed":true,"internalType":"address","name":"to","type":"address"},{"indexed":false,"internalType":"uint256","name":"value","type":"uint256"}],"name":"Transfer","type":"event"},{"inputs":[],"name":"PRICE_DECIMALS","outputs":[{"internalType":"uint256","name":"","type":"uint256"}],"stateMutability":"view","type":"function"},{"inputs":[],"name":"TOKEN_DECIMALS","outputs":[{"internalType":"uint256","name":"","type":"uint256"}],"stateMutability":"view","type":"function"},{"inputs":[{"internalType":"address","name":"owner","type":"address"},{"internalType":"address","name":"spender","type":"address"}],"name":"allowance","outputs":[{"internalType":"uint256","name":"","type":"uint256"}],"stateMutability":"view","type":"function"},{"inputs":[{"internalType":"address","name":"spender","type":"address"},{"internalType":"uint256","name":"value","type":"uint256"}],"name":"approve","outputs":[{"internalType":"bool","name":"","type":"bool"}],"stateMutability":"nonpayable","type":"function"},{"inputs":[{"internalType":"address","name":"account","type":"address"}],"name":"balanceOf","outputs":[{"internalType":"uint256","name":"","type":"uint256"}],"stateMutability":"view","type":"function"},{"inputs":[{"internalType":"uint256","name":"tokenAmount","type":"uint256"}],"name":"burn","outputs":[],"stateMutability":"nonpayable","type":"function"},{"inputs":[{"internalType":"uint256","name":"usdAmount","type":"uint256"}],"name":"calculateTokenAmount","outputs":[{"internalType":"uint256","name":"","type":"uint256"}],"stateMutability":"view","type":"function"},{"inputs":[],"name":"copperPrice","outputs":[{"internalType":"uint256","name":"","type":"uint256"}],"stateMutability":"view","type":"function"},{"inputs":[],"name":"decimals","outputs":[{"internalType":"uint8","name":"","type":"uint8"}],"stateMutability":"view","type":"function"},{"inputs":[],"name":"getCopperPriceInUSD","outputs":[{"internalType":"uint256","name":"","type":"uint256"}],"stateMutability":"view","type":"function"},{"inputs":[],"name":"getLatestPrice","outputs":[{"internalType":"uint256","name":"","type":"uint256"}],"stateMutability":"view","type":"function"},{"inputs":[],"name":"getTreasuryInfo","outputs":[{"internalType":"uint256","name":"_copperPrice","type":"uint256"},{"internalType":"uint256","name":"_nav","type":"uint256"},{"internalType":"uint256","name":"_totalSupply","type":"uint256"},{"internalType":"uint256","name":"_lastUpdate","type":"uint256"}],"stateMutability":"view","type":"function"},{"inputs":[],"name":"lastUpdateTime","outputs":[{"internalType":"uint256","name":"","type":"uint256"}],"stateMutability":"view","type":"function"},{"inputs":[{"internalType":"address","name":"to","type":"address"},{"internalType":"uint256","name":"usdAmount","type":"uint256"}],"name":"mint","outputs":[],"stateMutability":"nonpayable","type":"function"},{"inputs":[],"name":"name","outputs":[{"internalType":"string","name":"","type":"string"}],"stateMutability":"view","type":"function"},{"inputs":[],"name":"owner","outputs":[{"internalType":"address","name":"","type":"address"}],"stateMutability":"view","type":"function"},{"inputs":[],"name":"renounceOwnership","outputs":[],"stateMutability":"nonpayable","type":"function"},{"inputs":[{"internalType":"address","name":"_newPriceFeed","type":"address"}],"name":"setPriceFeed","outputs":[],"stateMutability":"nonpayable","type":"function"},{"inputs":[],"name":"symbol","outputs":[{"internalType":"string","name":"","type":"string"}],"stateMutability":"view","type":"function"},{"inputs":[],"name":"totalSupply","outputs":[{"internalType":"uint256","name":"","type":"uint256"}],"stateMutability":"view","type":"function"},{"inputs":[{"internalType":"address","name":"to","type":"address"},{"internalType":"uint256","name":"value","type":"uint256"}],"name":"transfer","outputs":[{"internalType":"bool","name":"","type":"bool"}],"stateMutability":"nonpayable","type":"function"},{"inputs":[{"internalType":"address","name":"from","type":"address"},{"internalType":"address","name":"to","type":"address"},{"internalType":"uint256","name":"value","type":"uint256"}],"name":"transferFrom","outputs":[{"internalType":"bool","name":"","type":"bool"}],"stateMutability":"nonpayable","type":"function"},{"inputs":[{"internalType":"address","name":"newOwner","type":"address"}],"name":"transferOwnership","outputs":[],"stateMutability":"nonpayable","type":"function"},{"inputs":[],"name":"updatePrice","outputs":[],"stateMutability":"nonpayable","type":"function"}],"evm":{"bytecode":{"linkReferences":{},"object":"608060405234801561001057600080fd5b5060405161254c38038061254c83398181016040528101906100329190610331565b336040518060400160405280600c81526020017f436f7070657220546f6b656e00000000000000000000000000000000000000008152506040518060400160405280600481526020017f4142434f0000000000000000000000000000000000000000000000000000000081525081600390816100ae91906105ae565b5080600490816100be91906105ae565b505050600073ffffffffffffffffffffffffffffffffffffffff168173ffffffffffffffffffffffffffffffffffffffff16036101335760006040517f1e4fbdf700000000000000000000000000000000000000000000000000000000815260040161012a919061068f565b60405180910390fd5b6101428161020860201b60201c565b50600073ffffffffffffffffffffffffffffffffffffffff168173ffffffffffffffffffffffffffffffffffffffff16036101b2576040517f08c379a00000000000000000000000000000000000000000000000000000000081526004016101a990610707565b60405180910390fd5b80600660006101000a81548173ffffffffffffffffffffffffffffffffffffffff021916908373ffffffffffffffffffffffffffffffffffffffff1602179055506714d1120d7b16000060078190555050610727565b6000600560009054906101000a900473ffffffffffffffffffffffffffffffffffffffff16905081600560006101000a81548173ffffffffffffffffffffffffffffffffffffffff021916908373ffffffffffffffffffffffffffffffffffffffff1602179055508173ffffffffffffffffffffffffffffffffffffffff168173ffffffffffffffffffffffffffffffffffffffff167f8be0079c531659141344cd1fd0a4f28419497f9722a3daafe3b4186f6b6457e060405160405180910390a35050565b600080fd5b600073ffffffffffffffffffffffffffffffffffffffff82169050919050565b60006102fe826102d3565b9050919050565b61030e816102f3565b811461031957600080fd5b50565b60008151905061032b81610305565b92915050565b600060208284031215610347576103466102ce565b5b60006103558482850161031c565b91505092915050565b600081519050919050565b7f4e487b7100000000000000000000000000000000000000000000000000000000600052604160045260246000fd5b7f4e487b7100000000000000000000000000000000000000000000000000000000600052602260045260246000fd5b600060028204905060018216806103df57607f821691505b6020821081036103f2576103f1610398565b5b50919050565b60008190508160005260206000209050919050565b60006020601f8301049050919050565b600082821b905092915050565b60006008830261045a7fffffffffffffffffffffffffffffffffffffffffffffffffffffffffffffffff8261041d565b610464868361041d565b95508019841693508086168417925050509392505050565b6000819050919050565b6000819050919050565b60006104ab6104a66104a18461047c565b610486565b61047c565b9050919050565b6000819050919050565b6104c583610490565b6104d96104d1826104b2565b84845461042a565b825550505050565b600090565b6104ee6104e1565b6104f98184846104bc565b505050565b5b8181101561051d576105126000826104e6565b6001810190506104ff565b5050565b601f82111561056257610533816103f8565b61053c8461040d565b8101602085101561054b578190505b61055f6105578561040d565b8301826104fe565b50505b505050565b600082821c905092915050565b600061058560001984600802610567565b1980831691505092915050565b600061059e8383610574565b9150826002028217905092915050565b6105b78261035e565b67ffffffffffffffff8111156105d0576105cf610369565b5b6105da82546103c7565b6105e5828285610521565b600060209050601f8311600181146106185760008415610606578287015190505b6106108582610592565b865550610678565b601f198416610626866103f8565b60005b8281101561064e57848901518255600182019150602085019450602081019050610629565b8683101561066b5784890151610667601f891682610574565b8355505b6001600288020188555050505b505050505050565b610689816102f3565b82525050565b60006020820190506106a46000830184610680565b92915050565b600082825260208201905092915050565b7f496e76616c696420707269636520666565642061646472657373000000000000600082015250565b60006106f1601a836106aa565b91506106fc826106bb565b602082019050919050565b60006020820190508181036000830152610720816106e4565b9050919050565b611e16806107366000396000f3fe608060405234801561001057600080fd5b50600436106101585760003560e01c8063724e78da116100c3578063c29394711161007c578063c2939471146103a5578063c8f33c91146103c6578063dd62ed3e146103e4578063e2a92a7c14610414578063f1a640f814610432578063f2fde38b1461045057610158565b8063724e78da146102cf5780638da5cb5b146102eb5780638e15f4731461030957806395d89b4114610327578063a24bcf4614610345578063a9059cbb1461037557610158565b806342966c681161011557806342966c68146102335780635b7f415c1461024f5780635d65982c1461026d578063673a7e281461028b57806370a0823114610295578063715018a6146102c557610158565b806306fdde031461015d578063095ea7b31461017b57806318160ddd146101ab57806323b872dd146101c9578063313ce567146101f957806340c10f1914610217575b600080fd5b61016561046c565b6040516101729190611457565b60405180910390f35b61019560048036038101906101909190611512565b6104fe565b6040516101a2919061156d565b60405180910390f35b6101b3610521565b6040516101c09190611597565b60405180910390f35b6101e360048036038101906101de91906115b2565b61052b565b6040516101f0919061156d565b60405180910390f35b61020161055a565b60405161020e9190611621565b60405180910390f35b610231600480360381019061022c9190611512565b610563565b005b61024d6004803603810190610248919061163c565b61065d565b005b6102576106ad565b6040516102649190611597565b60405180910390f35b6102756106b2565b6040516102829190611597565b60405180910390f35b6102936106b8565b005b6102af60048036038101906102aa9190611669565b61070e565b6040516102bc9190611597565b60405180910390f35b6102cd610756565b005b6102e960048036038101906102e49190611669565b61076a565b005b6102f3610825565b60405161030091906116a5565b60405180910390f35b61031161084f565b60405161031e9190611597565b60405180910390f35b61032f610933565b60405161033c9190611457565b60405180910390f35b61035f600480360381019061035a919061163c565b6109c5565b60405161036c9190611597565b60405180910390f35b61038f600480360381019061038a9190611512565b610a41565b60405161039c919061156d565b60405180910390f35b6103ad610a64565b6040516103bd94939291906116c0565b60405180910390f35b6103ce610a8c565b6040516103db9190611597565b60405180910390f35b6103fe60048036038101906103f99190611705565b610a92565b60405161040b9190611597565b60405180910390f35b61041c610b19565b6040516104299190611597565b60405180910390f35b61043a610b4c565b6040516104479190611597565b60405180910390f35b61046a60048036038101906104659190611669565b610b51565b005b60606003805461047b90611774565b80601f01602080910402602001604051908101604052809291908181526020018280546104a790611774565b80156104f45780601f106104c9576101008083540402835291602001916104f4565b820191906000526020600020905b8154815290600101906020018083116104d757829003601f168201915b5050505050905090565b600080610509610bd7565b9050610516818585610bdf565b600191505092915050565b6000600254905090565b600080610536610bd7565b9050610543858285610bf1565b61054e858585610c86565b60019150509392505050565b60006012905090565b61056b610d7a565b600081116105ae576040517f08c379a00000000000000000000000000000000000000000000000000000000081526004016105a5906117f1565b60405180910390fd5b60006105b9826109c5565b9050600081116105fe576040517f08c379a00000000000000000000000000000000000000000000000000000000081526004016105f59061185d565b60405180910390fd5b6106088382610e01565b8273ffffffffffffffffffffffffffffffffffffffff167f25b428dfde728ccfaddad7e29e4ac23c24ed7fd1a6e3e3f91894a9a073f5dfff838360405161065092919061187d565b60405180910390a2505050565b600081116106a0576040517f08c379a0000000000000000000000000000000000000000000000000000000008152600401610697906117f1565b60405180910390fd5b6106aa3382610e83565b50565b601281565b60075481565b60006106c261084f565b905080600781905550426008819055507f945c1c4e99aa89f648fbfe3df471b916f719e16d960fcec0737d4d56bd696838814260405161070392919061187d565b60405180910390a150565b60008060008373ffffffffffffffffffffffffffffffffffffffff1673ffffffffffffffffffffffffffffffffffffffff168152602001908152602001600020549050919050565b61075e610d7a565b6107686000610f05565b565b610772610d7a565b600073ffffffffffffffffffffffffffffffffffffffff168173ffffffffffffffffffffffffffffffffffffffff16036107e1576040517f08c379a00000000000000000000000000000000000000000000000000000000081526004016107d8906118f2565b60405180910390fd5b80600660006101000a81548173ffffffffffffffffffffffffffffffffffffffff021916908373ffffffffffffffffffffffffffffffffffffffff16021790555050565b6000600560009054906101000a900473ffffffffffffffffffffffffffffffffffffffff16905090565b600080600660009054906101000a900473ffffffffffffffffffffffffffffffffffffffff1673ffffffffffffffffffffffffffffffffffffffff1663feaf968c6040518163ffffffff1660e01b815260040160a060405180830381865afa1580156108bf573d6000803e3d6000fd5b505050506040513d601f19601f820116820180604052508101906108e3919061199f565b5050509150506000811361092c576040517f08c379a000000000000000000000000000000000000000000000000000000000815260040161092390611a66565b60405180910390fd5b8091505090565b60606004805461094290611774565b80601f016020809104026020016040519081016040528092919081815260200182805461096e90611774565b80156109bb5780601f10610990576101008083540402835291602001916109bb565b820191906000526020600020905b81548152906001019060200180831161099e57829003601f168201915b5050505050905090565b6000806109d0610b19565b905060008111610a15576040517f08c379a0000000000000000000000000000000000000000000000000000000008152600401610a0c90611ad2565b60405180910390fd5b806012600a610a249190611c54565b84610a2f9190611c9f565b610a399190611d10565b915050919050565b600080610a4c610bd7565b9050610a59818585610c86565b600191505092915050565b600080600080610a72610b19565b9350839250610a7f610521565b9150600854905090919293565b60085481565b6000600160008473ffffffffffffffffffffffffffffffffffffffff1673ffffffffffffffffffffffffffffffffffffffff16815260200190815260200160002060008373ffffffffffffffffffffffffffffffffffffffff1673ffffffffffffffffffffffffffffffffffffffff16815260200190815260200160002054905092915050565b600080600754905060086012610b2f9190611d41565b600a610b3b9190611c54565b81610b469190611c9f565b91505090565b600881565b610b59610d7a565b600073ffffffffffffffffffffffffffffffffffffffff168173ffffffffffffffffffffffffffffffffffffffff1603610bcb5760006040517f1e4fbdf7000000000000000000000000000000000000000000000000000000008152600401610bc291906116a5565b60405180910390fd5b610bd481610f05565b50565b600033905090565b610bec8383836001610fcb565b505050565b6000610bfd8484610a92565b90507fffffffffffffffffffffffffffffffffffffffffffffffffffffffffffffffff811015610c805781811015610c70578281836040517ffb8f41b2000000000000000000000000000000000000000000000000000000008152600401610c6793929190611d75565b60405180910390fd5b610c7f84848484036000610fcb565b5b50505050565b600073ffffffffffffffffffffffffffffffffffffffff168373ffffffffffffffffffffffffffffffffffffffff1603610cf85760006040517f96c6fd1e000000000000000000000000000000000000000000000000000000008152600401610cef91906116a5565b60405180910390fd5b600073ffffffffffffffffffffffffffffffffffffffff168273ffffffffffffffffffffffffffffffffffffffff1603610d6a5760006040517fec442f05000000000000000000000000000000000000000000000000000000008152600401610d6191906116a5565b60405180910390fd5b610d758383836111a2565b505050565b610d82610bd7565b73ffffffffffffffffffffffffffffffffffffffff16610da0610825565b73ffffffffffffffffffffffffffffffffffffffff1614610dff57610dc3610bd7565b6040517f118cdaa7000000000000000000000000000000000000000000000000000000008152600401610df691906116a5565b60405180910390fd5b565b600073ffffffffffffffffffffffffffffffffffffffff168273ffffffffffffffffffffffffffffffffffffffff1603610e735760006040517fec442f05000000000000000000000000000000000000000000000000000000008152600401610e6a91906116a5565b60405180910390fd5b610e7f600083836111a2565b5050565b600073ffffffffffffffffffffffffffffffffffffffff168273ffffffffffffffffffffffffffffffffffffffff1603610ef55760006040517f96c6fd1e000000000000000000000000000000000000000000000000000000008152600401610eec91906116a5565b60405180910390fd5b610f01826000836111a2565b5050565b6000600560009054906101000a900473ffffffffffffffffffffffffffffffffffffffff16905081600560006101000a81548173ffffffffffffffffffffffffffffffffffffffff021916908373ffffffffffffffffffffffffffffffffffffffff1602179055508173ffffffffffffffffffffffffffffffffffffffff168173ffffffffffffffffffffffffffffffffffffffff167f8be0079c531659141344cd1fd0a4f28419497f9722a3daafe3b4186f6b6457e060405160405180910390a35050565b600073ffffffffffffffffffffffffffffffffffffffff168473ffffffffffffffffffffffffffffffffffffffff160361103d5760006040517fe602df0500000000000000000000000000000000000000000000000000000000815260040161103491906116a5565b60405180910390fd5b600073ffffffffffffffffffffffffffffffffffffffff168373ffffffffffffffffffffffffffffffffffffffff16036110af5760006040517f94280d620000000000000000000000000000000000000000000000000000000081526004016110a691906116a5565b60405180910390fd5b81600160008673ffffffffffffffffffffffffffffffffffffffff1673ffffffffffffffffffffffffffffffffffffffff16815260200190815260200160002060008573ffffffffffffffffffffffffffffffffffffffff1673ffffffffffffffffffffffffffffffffffffffff16815260200190815260200160002081905550801561119c578273ffffffffffffffffffffffffffffffffffffffff168473ffffffffffffffffffffffffffffffffffffffff167f8c5be1e5ebec7d5bd14f71427d1e84f3dd0314c0f7b2291e5b200ac8c7c3b925846040516111939190611597565b60405180910390a35b50505050565b600073ffffffffffffffffffffffffffffffffffffffff168373ffffffffffffffffffffffffffffffffffffffff16036111f45780600260008282546111e89190611dac565b925050819055506112c7565b60008060008573ffffffffffffffffffffffffffffffffffffffff1673ffffffffffffffffffffffffffffffffffffffff16815260200190815260200160002054905081811015611280578381836040517fe450d38c00000000000000000000000000000000000000000000000000000000815260040161127793929190611d75565b60405180910390fd5b8181036000808673ffffffffffffffffffffffffffffffffffffffff1673ffffffffffffffffffffffffffffffffffffffff16815260200190815260200160002081905550505b600073ffffffffffffffffffffffffffffffffffffffff168273ffffffffffffffffffffffffffffffffffffffff1603611310578060026000828254039250508190555061135d565b806000808473ffffffffffffffffffffffffffffffffffffffff1673ffffffffffffffffffffffffffffffffffffffff168152602001908152602001600020600082825401925050819055505b8173ffffffffffffffffffffffffffffffffffffffff168373ffffffffffffffffffffffffffffffffffffffff167fddf252ad1be2c89b69c2b068fc378daa952ba7f163c4a11628f55a4df523b3ef836040516113ba9190611597565b60405180910390a3505050565b600081519050919050565b600082825260208201905092915050565b60005b838110156114015780820151818401526020810190506113e6565b60008484015250505050565b6000601f19601f8301169050919050565b6000611429826113c7565b61143381856113d2565b93506114438185602086016113e3565b61144c8161140d565b840191505092915050565b60006020820190508181036000830152611471818461141e565b905092915050565b600080fd5b600073ffffffffffffffffffffffffffffffffffffffff82169050919050565b60006114a98261147e565b9050919050565b6114b98161149e565b81146114c457600080fd5b50565b6000813590506114d6816114b0565b92915050565b6000819050919050565b6114ef816114dc565b81146114fa57600080fd5b50565b60008135905061150c816114e6565b92915050565b6000806040838503121561152957611528611479565b5b6000611537858286016114c7565b9250506020611548858286016114fd565b9150509250929050565b60008115159050919050565b61156781611552565b82525050565b6000602082019050611582600083018461155e565b92915050565b611591816114dc565b82525050565b60006020820190506115ac6000830184611588565b92915050565b6000806000606084860312156115cb576115ca611479565b5b60006115d9868287016114c7565b93505060206115ea868287016114c7565b92505060406115fb868287016114fd565b9150509250925092565b600060ff82169050919050565b61161b81611605565b82525050565b60006020820190506116366000830184611612565b92915050565b60006020828403121561165257611651611479565b5b6000611660848285016114fd565b91505092915050565b60006020828403121561167f5761167e611479565b5b600061168d848285016114c7565b91505092915050565b61169f8161149e565b82525050565b60006020820190506116ba6000830184611696565b92915050565b60006080820190506116d56000830187611588565b6116e26020830186611588565b6116ef6040830185611588565b6116fc6060830184611588565b95945050505050565b6000806040838503121561171c5761171b611479565b5b600061172a858286016114c7565b925050602061173b858286016114c7565b9150509250929050565b7f4e487b7100000000000000000000000000000000000000000000000000000000600052602260045260246000fd5b6000600282049050600182168061178c57607f821691505b60208210810361179f5761179e611745565b5b50919050565b7f416d6f756e74206d7573742062652067726561746572207468616e2030000000600082015250565b60006117db601d836113d2565b91506117e6826117a5565b602082019050919050565b6000602082019050818103600083015261180a816117ce565b9050919050565b7f546f6b656e20616d6f756e74206973207a65726f000000000000000000000000600082015250565b60006118476014836113d2565b915061185282611811565b602082019050919050565b600060208201905081810360008301526118768161183a565b9050919050565b60006040820190506118926000830185611588565b61189f6020830184611588565b9392505050565b7f496e76616c696420616464726573730000000000000000000000000000000000600082015250565b60006118dc600f836113d2565b91506118e7826118a6565b602082019050919050565b6000602082019050818103600083015261190b816118cf565b9050919050565b600069ffffffffffffffffffff82169050919050565b61193181611912565b811461193c57600080fd5b50565b60008151905061194e81611928565b92915050565b6000819050919050565b61196781611954565b811461197257600080fd5b50565b6000815190506119848161195e565b92915050565b600081519050611999816114e6565b92915050565b600080600080600060a086880312156119bb576119ba611479565b5b60006119c98882890161193f565b95505060206119da88828901611975565b94505060406119eb8882890161198a565b93505060606119fc8882890161198a565b9250506080611a0d8882890161193f565b9150509295509295909350565b7f496e76616c696420707269636500000000000000000000000000000000000000600082015250565b6000611a50600d836113d2565b9150611a5b82611a1a565b602082019050919050565b60006020820190508181036000830152611a7f81611a43565b9050919050565b7f5072696365206e6f742073657400000000000000000000000000000000000000600082015250565b6000611abc600d836113d2565b9150611ac782611a86565b602082019050919050565b60006020820190508181036000830152611aeb81611aaf565b9050919050565b7f4e487b7100000000000000000000000000000000000000000000000000000000600052601160045260246000fd5b60008160011c9050919050565b6000808291508390505b6001851115611b7857808604811115611b5457611b53611af2565b5b6001851615611b635780820291505b8081029050611b7185611b21565b9450611b38565b94509492505050565b600082611b915760019050611c4d565b81611b9f5760009050611c4d565b8160018114611bb55760028114611bbf57611bee565b6001915050611c4d565b60ff841115611bd157611bd0611af2565b5b8360020a915084821115611be857611be7611af2565b5b50611c4d565b5060208310610133831016604e8410600b8410161715611c235782820a905083811115611c1e57611c1d611af2565b5b611c4d565b611c308484846001611b2e565b92509050818404811115611c4757611c46611af2565b5b81810290505b9392505050565b6000611c5f826114dc565b9150611c6a836114dc565b9250611c977fffffffffffffffffffffffffffffffffffffffffffffffffffffffffffffffff8484611b81565b905092915050565b6000611caa826114dc565b9150611cb5836114dc565b9250828202611cc3816114dc565b91508282048414831517611cda57611cd9611af2565b5b5092915050565b7f4e487b7100000000000000000000000000000000000000000000000000000000600052601260045260246000fd5b6000611d1b826114dc565b9150611d26836114dc565b925082611d3657611d35611ce1565b5b828204905092915050565b6000611d4c826114dc565b9150611d57836114dc565b9250828203905081811115611d6f57611d6e611af2565b5b92915050565b6000606082019050611d8a6000830186611696565b611d976020830185611588565b611da46040830184611588565b949350505050565b6000611db7826114dc565b9150611dc2836114dc565b9250828201905080821115611dda57611dd9611af2565b5b9291505056fea2646970667358221220e55bbc2c5020958a02a2fdb1f544ee0cd93ea7b900b9839ad0ff618290c3021564736f6c634300081c0033","opcodes":"PUSH1 0x80 PUSH1 0x40 MSTORE CALLVALUE DUP1 ISZERO PUSH2 0x10 JUMPI PUSH1 0x0 DUP1 REVERT JUMPDEST POP PUSH1 0x40 MLOAD PUSH2 0x254C CODESIZE SUB DUP1 PUSH2 0x254C DUP4 CODECOPY DUP2 DUP2 ADD PUSH1 0x40 MSTORE DUP2 ADD SWAP1 PUSH2 0x32 SWAP2 SWAP1 PUSH2 0x331 JUMP JUMPDEST CALLER PUSH1 0x40 MLOAD DUP1 PUSH1 0x40 ADD PUSH1 0x40 MSTORE DUP1 PUSH1 0xC DUP2 MSTORE PUSH1 0x20 ADD PUSH32 0x436F7070657220546F6B656E0000000000000000000000000000000000000000 DUP2 MSTORE POP PUSH1 0x40 MLOAD DUP1 PUSH1 0x40 ADD PUSH1 0x40 MSTORE DUP1 PUSH1 0x4 DUP2 MSTORE PUSH1 0x20 ADD PUSH32 0x4142434F00000000000000000000000000000000000000000000000000000000 DUP2 MSTORE POP DUP2 PUSH1 0x3 SWAP1 DUP2 PUSH2 0xAE SWAP2 SWAP1 PUSH2 0x5AE JUMP JUMPDEST POP DUP1 PUSH1 0x4 SWAP1 DUP2 PUSH2 0xBE SWAP2 SWAP1 PUSH2 0x5AE JUMP JUMPDEST POP POP POP PUSH1 0x0 PUSH20 0xFFFFFFFFFFFFFFFFFFFFFFFFFFFFFFFFFFFFFFFF AND DUP2 PUSH20 0xFFFFFFFFFFFFFFFFFFFFFFFFFFFFFFFFFFFFFFFF AND SUB PUSH2 0x133 JUMPI PUSH1 0x0 PUSH1 0x40 MLOAD PUSH32 0x1E4FBDF700000000000000000000000000000000000000000000000000000000 DUP2 MSTORE PUSH1 0x4 ADD PUSH2 0x12A SWAP2 SWAP1 PUSH2 0x68F JUMP JUMPDEST PUSH1 0x40 MLOAD DUP1 SWAP2 SUB SWAP1 REVERT JUMPDEST PUSH2 0x142 DUP2 PUSH2 0x208 PUSH1 0x20 SHL PUSH1 0x20 SHR JUMP JUMPDEST POP PUSH1 0x0 PUSH20 0xFFFFFFFFFFFFFFFFFFFFFFFFFFFFFFFFFFFFFFFF AND DUP2 PUSH20 0xFFFFFFFFFFFFFFFFFFFFFFFFFFFFFFFFFFFFFFFF AND SUB PUSH2 0x1B2 JUMPI PUSH1 0x40 MLOAD PUSH32 0x8C379A000000000000000000000000000000000000000000000000000000000 DUP2 MSTORE PUSH1 0x4 ADD PUSH2 0x1A9 SWAP1 PUSH2 0x707 JUMP JUMPDEST PUSH1 0x40 MLOAD DUP1 SWAP2 SUB SWAP1 REVERT JUMPDEST DUP1 PUSH1 0x6 PUSH1 0x0 PUSH2 0x100 EXP DUP2 SLOAD DUP2 PUSH20 0xFFFFFFFFFFFFFFFFFFFFFFFFFFFFFFFFFFFFFFFF MUL NOT AND SWAP1 DUP4 PUSH20 0xFFFFFFFFFFFFFFFFFFFFFFFFFFFFFFFFFFFFFFFF AND MUL OR SWAP1 SSTORE POP PUSH8 0x14D1120D7B160000 PUSH1 0x7 DUP2 SWAP1 SSTORE POP POP PUSH2 0x727 JUMP JUMPDEST PUSH1 0x0 PUSH1 0x5 PUSH1 0x0 SWAP1 SLOAD SWAP1 PUSH2 0x100 EXP SWAP1 DIV PUSH20 0xFFFFFFFFFFFFFFFFFFFFFFFFFFFFFFFFFFFFFFFF AND SWAP1 POP DUP2 PUSH1 0x5 PUSH1 0x0 PUSH2 0x100 EXP DUP2 SLOAD DUP2 PUSH20 0xFFFFFFFFFFFFFFFFFFFFFFFFFFFFFFFFFFFFFFFF MUL NOT AND SWAP1 DUP4 PUSH20 0xFFFFFFFFFFFFFFFFFFFFFFFFFFFFFFFFFFFFFFFF AND MUL OR SWAP1 SSTORE POP DUP2 PUSH20 0xFFFFFFFFFFFFFFFFFFFFFFFFFFFFFFFFFFFFFFFF AND DUP2 PUSH20 0xFFFFFFFFFFFFFFFFFFFFFFFFFFFFFFFFFFFFFFFF AND PUSH32 0x8BE0079C531659141344CD1FD0A4F28419497F9722A3DAAFE3B4186F6B6457E0 PUSH1 0x40 MLOAD PUSH1 0x40 MLOAD DUP1 SWAP2 SUB SWAP1 LOG3 POP POP JUMP JUMPDEST PUSH1 0x0 DUP1 REVERT JUMPDEST PUSH1 0x0 PUSH20 0xFFFFFFFFFFFFFFFFFFFFFFFFFFFFFFFFFFFFFFFF DUP3 AND SWAP1 POP SWAP2 SWAP1 POP JUMP JUMPDEST PUSH1 0x0 PUSH2 0x2FE DUP3 PUSH2 0x2D3 JUMP JUMPDEST SWAP1 POP SWAP2 SWAP1 POP JUMP JUMPDEST PUSH2 0x30E DUP2 PUSH2 0x2F3 JUMP JUMPDEST DUP2 EQ PUSH2 0x319 JUMPI PUSH1 0x0 DUP1 REVERT JUMPDEST POP JUMP JUMPDEST PUSH1 0x0 DUP2 MLOAD SWAP1 POP PUSH2 0x32B DUP2 PUSH2 0x305 JUMP JUMPDEST SWAP3 SWAP2 POP POP JUMP JUMPDEST PUSH1 0x0 PUSH1 0x20 DUP3 DUP5 SUB SLT ISZERO PUSH2 0x347 JUMPI PUSH2 0x346 PUSH2 0x2CE JUMP JUMPDEST JUMPDEST PUSH1 0x0 PUSH2 0x355 DUP5 DUP3 DUP6 ADD PUSH2 0x31C JUMP JUMPDEST SWAP2 POP POP SWAP3 SWAP2 POP POP JUMP JUMPDEST PUSH1 0x0 DUP2 MLOAD SWAP1 POP SWAP2 SWAP1 POP JUMP JUMPDEST PUSH32 0x4E487B7100000000000000000000000000000000000000000000000000000000 PUSH1 0x0 MSTORE PUSH1 0x41 PUSH1 0x4 MSTORE PUSH1 0x24 PUSH1 0x0 REVERT JUMPDEST PUSH32 0x4E487B7100000000000000000000000000000000000000000000000000000000 PUSH1 0x0 MSTORE PUSH1 0x22 PUSH1 0x4 MSTORE PUSH1 0x24 PUSH1 0x0 REVERT JUMPDEST PUSH1 0x0 PUSH1 0x2 DUP3 DIV SWAP1 POP PUSH1 0x1 DUP3 AND DUP1 PUSH2 0x3DF JUMPI PUSH1 0x7F DUP3 AND SWAP2 POP JUMPDEST PUSH1 0x20 DUP3 LT DUP2 SUB PUSH2 0x3F2 JUMPI PUSH2 0x3F1 PUSH2 0x398 JUMP JUMPDEST JUMPDEST POP SWAP2 SWAP1 POP JUMP JUMPDEST PUSH1 0x0 DUP2 SWAP1 POP DUP2 PUSH1 0x0 MSTORE PUSH1 0x20 PUSH1 0x0 KECCAK256 SWAP1 POP SWAP2 SWAP1 POP JUMP JUMPDEST PUSH1 0x0 PUSH1 0x20 PUSH1 0x1F DUP4 ADD DIV SWAP1 POP SWAP2 SWAP1 POP JUMP JUMPDEST PUSH1 0x0 DUP3 DUP3 SHL SWAP1 POP SWAP3 SWAP2 POP POP JUMP JUMPDEST PUSH1 0x0 PUSH1 0x8 DUP4 MUL PUSH2 0x45A PUSH32 0xFFFFFFFFFFFFFFFFFFFFFFFFFFFFFFFFFFFFFFFFFFFFFFFFFFFFFFFFFFFFFFFF DUP3 PUSH2 0x41D JUMP JUMPDEST PUSH2 0x464 DUP7 DUP4 PUSH2 0x41D JUMP JUMPDEST SWAP6 POP DUP1 NOT DUP5 AND SWAP4 POP DUP1 DUP7 AND DUP5 OR SWAP3 POP POP POP SWAP4 SWAP3 POP POP POP JUMP JUMPDEST PUSH1 0x0 DUP2 SWAP1 POP SWAP2 SWAP1 POP JUMP JUMPDEST PUSH1 0x0 DUP2 SWAP1 POP SWAP2 SWAP1 POP JUMP JUMPDEST PUSH1 0x0 PUSH2 0x4AB PUSH2 0x4A6 PUSH2 0x4A1 DUP5 PUSH2 0x47C JUMP JUMPDEST PUSH2 0x486 JUMP JUMPDEST PUSH2 0x47C JUMP JUMPDEST SWAP1 POP SWAP2 SWAP1 POP JUMP JUMPDEST PUSH1 0x0 DUP2 SWAP1 POP SWAP2 SWAP1 POP JUMP JUMPDEST PUSH2 0x4C5 DUP4 PUSH2 0x490 JUMP JUMPDEST PUSH2 0x4D9 PUSH2 0x4D1 DUP3 PUSH2 0x4B2 JUMP JUMPDEST DUP5 DUP5 SLOAD PUSH2 0x42A JUMP JUMPDEST DUP3 SSTORE POP POP POP POP JUMP JUMPDEST PUSH1 0x0 SWAP1 JUMP JUMPDEST PUSH2 0x4EE PUSH2 0x4E1 JUMP JUMPDEST PUSH2 0x4F9 DUP2 DUP5 DUP5 PUSH2 0x4BC JUMP JUMPDEST POP POP POP JUMP JUMPDEST JUMPDEST DUP2 DUP2 LT ISZERO PUSH2 0x51D JUMPI PUSH2 0x512 PUSH1 0x0 DUP3 PUSH2 0x4E6 JUMP JUMPDEST PUSH1 0x1 DUP2 ADD SWAP1 POP PUSH2 0x4FF JUMP JUMPDEST POP POP JUMP JUMPDEST PUSH1 0x1F DUP3 GT ISZERO PUSH2 0x562 JUMPI PUSH2 0x533 DUP2 PUSH2 0x3F8 JUMP JUMPDEST PUSH2 0x53C DUP5 PUSH2 0x40D JUMP JUMPDEST DUP2 ADD PUSH1 0x20 DUP6 LT ISZERO PUSH2 0x54B JUMPI DUP2 SWAP1 POP JUMPDEST PUSH2 0x55F PUSH2 0x557 DUP6 PUSH2 0x40D JUMP JUMPDEST DUP4 ADD DUP3 PUSH2 0x4FE JUMP JUMPDEST POP POP JUMPDEST POP POP POP JUMP JUMPDEST PUSH1 0x0 DUP3 DUP3 SHR SWAP1 POP SWAP3 SWAP2 POP POP JUMP JUMPDEST PUSH1 0x0 PUSH2 0x585 PUSH1 0x0 NOT DUP5 PUSH1 0x8 MUL PUSH2 0x567 JUMP JUMPDEST NOT DUP1 DUP4 AND SWAP2 POP POP SWAP3 SWAP2 POP POP JUMP JUMPDEST PUSH1 0x0 PUSH2 0x59E DUP4 DUP4 PUSH2 0x574 JUMP JUMPDEST SWAP2 POP DUP3 PUSH1 0x2 MUL DUP3 OR SWAP1 POP SWAP3 SWAP2 POP POP JUMP JUMPDEST PUSH2 0x5B7 DUP3 PUSH2 0x35E JUMP JUMPDEST PUSH8 0xFFFFFFFFFFFFFFFF DUP2 GT ISZERO PUSH2 0x5D0 JUMPI PUSH2 0x5CF PUSH2 0x369 JUMP JUMPDEST JUMPDEST PUSH2 0x5DA DUP3 SLOAD PUSH2 0x3C7 JUMP JUMPDEST PUSH2 0x5E5 DUP3 DUP3 DUP6 PUSH2 0x521 JUMP JUMPDEST PUSH1 0x0 PUSH1 0x20 SWAP1 POP PUSH1 0x1F DUP4 GT PUSH1 0x1 DUP2 EQ PUSH2 0x618 JUMPI PUSH1 0x0 DUP5 ISZERO PUSH2 0x606 JUMPI DUP3 DUP8 ADD MLOAD SWAP1 POP JUMPDEST PUSH2 0x610 DUP6 DUP3 PUSH2 0x592 JUMP JUMPDEST DUP7 SSTORE POP PUSH2 0x678 JUMP JUMPDEST PUSH1 0x1F NOT DUP5 AND PUSH2 0x626 DUP7 PUSH2 0x3F8 JUMP JUMPDEST PUSH1 0x0 JUMPDEST DUP3 DUP2 LT ISZERO PUSH2 0x64E JUMPI DUP5 DUP10 ADD MLOAD DUP3 SSTORE PUSH1 0x1 DUP3 ADD SWAP2 POP PUSH1 0x20 DUP6 ADD SWAP5 POP PUSH1 0x20 DUP2 ADD SWAP1 POP PUSH2 0x629 JUMP JUMPDEST DUP7 DUP4 LT ISZERO PUSH2 0x66B JUMPI DUP5 DUP10 ADD MLOAD PUSH2 0x667 PUSH1 0x1F DUP10 AND DUP3 PUSH2 0x574 JUMP JUMPDEST DUP4 SSTORE POP JUMPDEST PUSH1 0x1 PUSH1 0x2 DUP9 MUL ADD DUP9 SSTORE POP POP POP JUMPDEST POP POP POP POP POP POP JUMP JUMPDEST PUSH2 0x689 DUP2 PUSH2 0x2F3 JUMP JUMPDEST DUP3 MSTORE POP POP JUMP JUMPDEST PUSH1 0x0 PUSH1 0x20 DUP3 ADD SWAP1 POP PUSH2 0x6A4 PUSH1 0x0 DUP4 ADD DUP5 PUSH2 0x680 JUMP JUMPDEST SWAP3 SWAP2 POP POP JUMP JUMPDEST PUSH1 0x0 DUP3 DUP3 MSTORE PUSH1 0x20 DUP3 ADD SWAP1 POP SWAP3 SWAP2 POP POP JUMP JUMPDEST PUSH32 0x496E76616C696420707269636520666565642061646472657373000000000000 PUSH1 0x0 DUP3 ADD MSTORE POP JUMP JUMPDEST PUSH1 0x0 PUSH2 0x6F1 PUSH1 0x1A DUP4 PUSH2 0x6AA JUMP JUMPDEST SWAP2 POP PUSH2 0x6FC DUP3 PUSH2 0x6BB JUMP JUMPDEST PUSH1 0x20 DUP3 ADD SWAP1 POP SWAP2 SWAP1 POP JUMP JUMPDEST PUSH1 0x0 PUSH1 0x20 DUP3 ADD SWAP1 POP DUP2 DUP2 SUB PUSH1 0x0 DUP4 ADD MSTORE PUSH2 0x720 DUP2 PUSH2 0x6E4 JUMP JUMPDEST SWAP1 POP SWAP2 SWAP1 POP JUMP JUMPDEST PUSH2 0x1E16 DUP1 PUSH2 0x736 PUSH1 0x0 CODECOPY PUSH1 0x0 RETURN INVALID PUSH1 0x80 PUSH1 0x40 MSTORE CALLVALUE DUP1 ISZERO PUSH2 0x10 JUMPI PUSH1 0x0 DUP1 REVERT JUMPDEST POP PUSH1 0x4 CALLDATASIZE LT PUSH2 0x158 JUMPI PUSH1 0x0 CALLDATALOAD PUSH1 0xE0 SHR DUP1 PUSH4 0x724E78DA GT PUSH2 0xC3 JUMPI DUP1 PUSH4 0xC2939471 GT PUSH2 0x7C JUMPI DUP1 PUSH4 0xC2939471 EQ PUSH2 0x3A5 JUMPI DUP1 PUSH4 0xC8F33C91 EQ PUSH2 0x3C6 JUMPI DUP1 PUSH4 0xDD62ED3E EQ PUSH2 0x3E4 JUMPI DUP1 PUSH4 0xE2A92A7C EQ PUSH2 0x414 JUMPI DUP1 PUSH4 0xF1A640F8 EQ PUSH2 0x432 JUMPI DUP1 PUSH4 0xF2FDE38B EQ PUSH2 0x450 JUMPI PUSH2 0x158 JUMP JUMPDEST DUP1 PUSH4 0x724E78DA EQ PUSH2 0x2CF JUMPI DUP1 PUSH4 0x8DA5CB5B EQ PUSH2 0x2EB JUMPI DUP1 PUSH4 0x8E15F473 EQ PUSH2 0x309 JUMPI DUP1 PUSH4 0x95D89B41 EQ PUSH2 0x327 JUMPI DUP1 PUSH4 0xA24BCF46 EQ PUSH2 0x345 JUMPI DUP1 PUSH4 0xA9059CBB EQ PUSH2 0x375 JUMPI PUSH2 0x158 JUMP JUMPDEST DUP1 PUSH4 0x42966C68 GT PUSH2 0x115 JUMPI DUP1 PUSH4 0x42966C68 EQ PUSH2 0x233 JUMPI DUP1 PUSH4 0x5B7F415C EQ PUSH2 0x24F JUMPI DUP1 PUSH4 0x5D65982C EQ PUSH2 0x26D JUMPI DUP1 PUSH4 0x673A7E28 EQ PUSH2 0x28B JUMPI DUP1 PUSH4 0x70A08231 EQ PUSH2 0x295 JUMPI DUP1 PUSH4 0x715018A6 EQ PUSH2 0x2C5 JUMPI PUSH2 0x158 JUMP JUMPDEST DUP1 PUSH4 0x6FDDE03 EQ PUSH2 0x15D JUMPI DUP1 PUSH4 0x95EA7B3 EQ PUSH2 0x17B JUMPI DUP1 PUSH4 0x18160DDD EQ PUSH2 0x1AB JUMPI DUP1 PUSH4 0x23B872DD EQ PUSH2 0x1C9 JUMPI DUP1 PUSH4 0x313CE567 EQ PUSH2 0x1F9 JUMPI DUP1 PUSH4 0x40C10F19 EQ PUSH2 0x217 JUMPI JUMPDEST PUSH1 0x0 DUP1 REVERT JUMPDEST PUSH2 0x165 PUSH2 0x46C JUMP JUMPDEST PUSH1 0x40 MLOAD PUSH2 0x172 SWAP2 SWAP1 PUSH2 0x1457 JUMP JUMPDEST PUSH1 0x40 MLOAD DUP1 SWAP2 SUB SWAP1 RETURN JUMPDEST PUSH2 0x195 PUSH1 0x4 DUP1 CALLDATASIZE SUB DUP2 ADD SWAP1 PUSH2 0x190 SWAP2 SWAP1 PUSH2 0x1512 JUMP JUMPDEST PUSH2 0x4FE JUMP JUMPDEST PUSH1 0x40 MLOAD PUSH2 0x1A2 SWAP2 SWAP1 PUSH2 0x156D JUMP JUMPDEST PUSH1 0x40 MLOAD DUP1 SWAP2 SUB SWAP1 RETURN JUMPDEST PUSH2 0x1B3 PUSH2 0x521 JUMP JUMPDEST PUSH1 0x40 MLOAD PUSH2 0x1C0 SWAP2 SWAP1 PUSH2 0x1597 JUMP JUMPDEST PUSH1 0x40 MLOAD DUP1 SWAP2 SUB SWAP1 RETURN JUMPDEST PUSH2 0x1E3 PUSH1 0x4 DUP1 CALLDATASIZE SUB DUP2 ADD SWAP1 PUSH2 0x1DE SWAP2 SWAP1 PUSH2 0x15B2 JUMP JUMPDEST PUSH2 0x52B JUMP JUMPDEST PUSH1 0x40 MLOAD PUSH2 0x1F0 SWAP2 SWAP1 PUSH2 0x156D JUMP JUMPDEST PUSH1 0x40 MLOAD DUP1 SWAP2 SUB SWAP1 RETURN JUMPDEST PUSH2 0x201 PUSH2 0x55A JUMP JUMPDEST PUSH1 0x40 MLOAD PUSH2 0x20E SWAP2 SWAP1 PUSH2 0x1621 JUMP JUMPDEST PUSH1 0x40 MLOAD DUP1 SWAP2 SUB SWAP1 RETURN JUMPDEST PUSH2 0x231 PUSH1 0x4 DUP1 CALLDATASIZE SUB DUP2 ADD SWAP1 PUSH2 0x22C SWAP2 SWAP1 PUSH2 0x1512 JUMP JUMPDEST PUSH2 0x563 JUMP JUMPDEST STOP JUMPDEST PUSH2 0x24D PUSH1 0x4 DUP1 CALLDATASIZE SUB DUP2 ADD SWAP1 PUSH2 0x248 SWAP2 SWAP1 PUSH2 0x163C JUMP JUMPDEST PUSH2 0x65D JUMP JUMPDEST STOP JUMPDEST PUSH2 0x257 PUSH2 0x6AD JUMP JUMPDEST PUSH1 0x40 MLOAD PUSH2 0x264 SWAP2 SWAP1 PUSH2 0x1597 JUMP JUMPDEST PUSH1 0x40 MLOAD DUP1 SWAP2 SUB SWAP1 RETURN JUMPDEST PUSH2 0x275 PUSH2 0x6B2 JUMP JUMPDEST PUSH1 0x40 MLOAD PUSH2 0x282 SWAP2 SWAP1 PUSH2 0x1597 JUMP JUMPDEST PUSH1 0x40 MLOAD DUP1 SWAP2 SUB SWAP1 RETURN JUMPDEST PUSH2 0x293 PUSH2 0x6B8 JUMP JUMPDEST STOP JUMPDEST PUSH2 0x2AF PUSH1 0x4 DUP1 CALLDATASIZE SUB DUP2 ADD SWAP1 PUSH2 0x2AA SWAP2 SWAP1 PUSH2 0x1669 JUMP JUMPDEST PUSH2 0x70E JUMP JUMPDEST PUSH1 0x40 MLOAD PUSH2 0x2BC SWAP2 SWAP1 PUSH2 0x1597 JUMP JUMPDEST PUSH1 0x40 MLOAD DUP1 SWAP2 SUB SWAP1 RETURN JUMPDEST PUSH2 0x2CD PUSH2 0x756 JUMP JUMPDEST STOP JUMPDEST PUSH2 0x2E9 PUSH1 0x4 DUP1 CALLDATASIZE SUB DUP2 ADD SWAP1 PUSH2 0x2E4 SWAP2 SWAP1 PUSH2 0x1669 JUMP JUMPDEST PUSH2 0x76A JUMP JUMPDEST STOP JUMPDEST PUSH2 0x2F3 PUSH2 0x825 JUMP JUMPDEST PUSH1 0x40 MLOAD PUSH2 0x300 SWAP2 SWAP1 PUSH2 0x16A5 JUMP JUMPDEST PUSH1 0x40 MLOAD DUP1 SWAP2 SUB SWAP1 RETURN JUMPDEST PUSH2 0x311 PUSH2 0x84F JUMP JUMPDEST PUSH1 0x40 MLOAD PUSH2 0x31E SWAP2 SWAP1 PUSH2 0x1597 JUMP JUMPDEST PUSH1 0x40 MLOAD DUP1 SWAP2 SUB SWAP1 RETURN JUMPDEST PUSH2 0x32F PUSH2 0x933 JUMP JUMPDEST PUSH1 0x40 MLOAD PUSH2 0x33C SWAP2 SWAP1 PUSH2 0x1457 JUMP JUMPDEST PUSH1 0x40 MLOAD DUP1 SWAP2 SUB SWAP1 RETURN JUMPDEST PUSH2 0x35F PUSH1 0x4 DUP1 CALLDATASIZE SUB DUP2 ADD SWAP1 PUSH2 0x35A SWAP2 SWAP1 PUSH2 0x163C JUMP JUMPDEST PUSH2 0x9C5 JUMP JUMPDEST PUSH1 0x40 MLOAD PUSH2 0x36C SWAP2 SWAP1 PUSH2 0x1597 JUMP JUMPDEST PUSH1 0x40 MLOAD DUP1 SWAP2 SUB SWAP1 RETURN JUMPDEST PUSH2 0x38F PUSH1 0x4 DUP1 CALLDATASIZE SUB DUP2 ADD SWAP1 PUSH2 0x38A SWAP2 SWAP1 PUSH2 0x1512 JUMP JUMPDEST PUSH2 0xA41 JUMP JUMPDEST PUSH1 0x40 MLOAD PUSH2 0x39C SWAP2 SWAP1 PUSH2 0x156D JUMP JUMPDEST PUSH1 0x40 MLOAD DUP1 SWAP2 SUB SWAP1 RETURN JUMPDEST PUSH2 0x3AD PUSH2 0xA64 JUMP JUMPDEST PUSH1 0x40 MLOAD PUSH2 0x3BD SWAP5 SWAP4 SWAP3 SWAP2 SWAP1 PUSH2 0x16C0 JUMP JUMPDEST PUSH1 0x40 MLOAD DUP1 SWAP2 SUB SWAP1 RETURN JUMPDEST PUSH2 0x3CE PUSH2 0xA8C JUMP JUMPDEST PUSH1 0x40 MLOAD PUSH2 0x3DB SWAP2 SWAP1 PUSH2 0x1597 JUMP JUMPDEST PUSH1 0x40 MLOAD DUP1 SWAP2 SUB SWAP1 RETURN JUMPDEST PUSH2 0x3FE PUSH1 0x4 DUP1 CALLDATASIZE SUB DUP2 ADD SWAP1 PUSH2 0x3F9 SWAP2 SWAP1 PUSH2 0x1705 JUMP JUMPDEST PUSH2 0xA92 JUMP JUMPDEST PUSH1 0x40 MLOAD PUSH2 0x40B SWAP2 SWAP1 PUSH2 0x1597 JUMP JUMPDEST PUSH1 0x40 MLOAD DUP1 SWAP2 SUB SWAP1 RETURN JUMPDEST PUSH2 0x41C PUSH2 0xB19 JUMP JUMPDEST PUSH1 0x40 MLOAD PUSH2 0x429 SWAP2 SWAP1 PUSH2 0x1597 JUMP JUMPDEST PUSH1 0x40 MLOAD DUP1 SWAP2 SUB SWAP1 RETURN JUMPDEST PUSH2 0x43A PUSH2 0xB4C JUMP JUMPDEST PUSH1 0x40 MLOAD PUSH2 0x447 SWAP2 SWAP1 PUSH2 0x1597 JUMP JUMPDEST PUSH1 0x40 MLOAD DUP1 SWAP2 SUB SWAP1 RETURN JUMPDEST PUSH2 0x46A PUSH1 0x4 DUP1 CALLDATASIZE SUB DUP2 ADD SWAP1 PUSH2 0x465 SWAP2 SWAP1 PUSH2 0x1669 JUMP JUMPDEST PUSH2 0xB51 JUMP JUMPDEST STOP JUMPDEST PUSH1 0x60 PUSH1 0x3 DUP1 SLOAD PUSH2 0x47B SWAP1 PUSH2 0x1774 JUMP JUMPDEST DUP1 PUSH1 0x1F ADD PUSH1 0x20 DUP1 SWAP2 DIV MUL PUSH1 0x20 ADD PUSH1 0x40 MLOAD SWAP1 DUP2 ADD PUSH1 0x40 MSTORE DUP1 SWAP3 SWAP2 SWAP1 DUP2 DUP2 MSTORE PUSH1 0x20 ADD DUP3 DUP1 SLOAD PUSH2 0x4A7 SWAP1 PUSH2 0x1774 JUMP JUMPDEST DUP1 ISZERO PUSH2 0x4F4 JUMPI DUP1 PUSH1 0x1F LT PUSH2 0x4C9 JUMPI PUSH2 0x100 DUP1 DUP4 SLOAD DIV MUL DUP4 MSTORE SWAP2 PUSH1 0x20 ADD SWAP2 PUSH2 0x4F4 JUMP JUMPDEST DUP3 ADD SWAP2 SWAP1 PUSH1 0x0 MSTORE PUSH1 0x20 PUSH1 0x0 KECCAK256 SWAP1 JUMPDEST DUP2 SLOAD DUP2 MSTORE SWAP1 PUSH1 0x1 ADD SWAP1 PUSH1 0x20 ADD DUP1 DUP4 GT PUSH2 0x4D7 JUMPI DUP3 SWAP1 SUB PUSH1 0x1F AND DUP3 ADD SWAP2 JUMPDEST POP POP POP POP POP SWAP1 POP SWAP1 JUMP JUMPDEST PUSH1 0x0 DUP1 PUSH2 0x509 PUSH2 0xBD7 JUMP JUMPDEST SWAP1 POP PUSH2 0x516 DUP2 DUP6 DUP6 PUSH2 0xBDF JUMP JUMPDEST PUSH1 0x1 SWAP2 POP POP SWAP3 SWAP2 POP POP JUMP JUMPDEST PUSH1 0x0 PUSH1 0x2 SLOAD SWAP1 POP SWAP1 JUMP JUMPDEST PUSH1 0x0 DUP1 PUSH2 0x536 PUSH2 0xBD7 JUMP JUMPDEST SWAP1 POP PUSH2 0x543 DUP6 DUP3 DUP6 PUSH2 0xBF1 JUMP JUMPDEST PUSH2 0x54E DUP6 DUP6 DUP6 PUSH2 0xC86 JUMP JUMPDEST PUSH1 0x1 SWAP2 POP POP SWAP4 SWAP3 POP POP POP JUMP JUMPDEST PUSH1 0x0 PUSH1 0x12 SWAP1 POP SWAP1 JUMP JUMPDEST PUSH2 0x56B PUSH2 0xD7A JUMP JUMPDEST PUSH1 0x0 DUP2 GT PUSH2 0x5AE JUMPI PUSH1 0x40 MLOAD PUSH32 0x8C379A000000000000000000000000000000000000000000000000000000000 DUP2 MSTORE PUSH1 0x4 ADD PUSH2 0x5A5 SWAP1 PUSH2 0x17F1 JUMP JUMPDEST PUSH1 0x40 MLOAD DUP1 SWAP2 SUB SWAP1 REVERT JUMPDEST PUSH1 0x0 PUSH2 0x5B9 DUP3 PUSH2 0x9C5 JUMP JUMPDEST SWAP1 POP PUSH1 0x0 DUP2 GT PUSH2 0x5FE JUMPI PUSH1 0x40 MLOAD PUSH32 0x8C379A000000000000000000000000000000000000000000000000000000000 DUP2 MSTORE PUSH1 0x4 ADD PUSH2 0x5F5 SWAP1 PUSH2 0x185D JUMP JUMPDEST PUSH1 0x40 MLOAD DUP1 SWAP2 SUB SWAP1 REVERT JUMPDEST PUSH2 0x608 DUP4 DUP3 PUSH2 0xE01 JUMP JUMPDEST DUP3 PUSH20 0xFFFFFFFFFFFFFFFFFFFFFFFFFFFFFFFFFFFFFFFF AND PUSH32 0x25B428DFDE728CCFADDAD7E29E4AC23C24ED7FD1A6E3E3F91894A9A073F5DFFF DUP4 DUP4 PUSH1 0x40 MLOAD PUSH2 0x650 SWAP3 SWAP2 SWAP1 PUSH2 0x187D JUMP JUMPDEST PUSH1 0x40 MLOAD DUP1 SWAP2 SUB SWAP1 LOG2 POP POP POP JUMP JUMPDEST PUSH1 0x0 DUP2 GT PUSH2 0x6A0 JUMPI PUSH1 0x40 MLOAD PUSH32 0x8C379A000000000000000000000000000000000000000000000000000000000 DUP2 MSTORE PUSH1 0x4 ADD PUSH2 0x697 SWAP1 PUSH2 0x17F1 JUMP JUMPDEST PUSH1 0x40 MLOAD DUP1 SWAP2 SUB SWAP1 REVERT JUMPDEST PUSH2 0x6AA CALLER DUP3 PUSH2 0xE83 JUMP JUMPDEST POP JUMP JUMPDEST PUSH1 0x12 DUP2 JUMP JUMPDEST PUSH1 0x7 SLOAD DUP2 JUMP JUMPDEST PUSH1 0x0 PUSH2 0x6C2 PUSH2 0x84F JUMP JUMPDEST SWAP1 POP DUP1 PUSH1 0x7 DUP2 SWAP1 SSTORE POP TIMESTAMP PUSH1 0x8 DUP2 SWAP1 SSTORE POP PUSH32 0x945C1C4E99AA89F648FBFE3DF471B916F719E16D960FCEC0737D4D56BD696838 DUP2 TIMESTAMP PUSH1 0x40 MLOAD PUSH2 0x703 SWAP3 SWAP2 SWAP1 PUSH2 0x187D JUMP JUMPDEST PUSH1 0x40 MLOAD DUP1 SWAP2 SUB SWAP1 LOG1 POP JUMP JUMPDEST PUSH1 0x0 DUP1 PUSH1 0x0 DUP4 PUSH20 0xFFFFFFFFFFFFFFFFFFFFFFFFFFFFFFFFFFFFFFFF AND PUSH20 0xFFFFFFFFFFFFFFFFFFFFFFFFFFFFFFFFFFFFFFFF AND DUP2 MSTORE PUSH1 0x20 ADD SWAP1 DUP2 MSTORE PUSH1 0x20 ADD PUSH1 0x0 KECCAK256 SLOAD SWAP1 POP SWAP2 SWAP1 POP JUMP JUMPDEST PUSH2 0x75E PUSH2 0xD7A JUMP JUMPDEST PUSH2 0x768 PUSH1 0x0 PUSH2 0xF05 JUMP JUMPDEST JUMP JUMPDEST PUSH2 0x772 PUSH2 0xD7A JUMP JUMPDEST PUSH1 0x0 PUSH20 0xFFFFFFFFFFFFFFFFFFFFFFFFFFFFFFFFFFFFFFFF AND DUP2 PUSH20 0xFFFFFFFFFFFFFFFFFFFFFFFFFFFFFFFFFFFFFFFF AND SUB PUSH2 0x7E1 JUMPI PUSH1 0x40 MLOAD PUSH32 0x8C379A000000000000000000000000000000000000000000000000000000000 DUP2 MSTORE PUSH1 0x4 ADD PUSH2 0x7D8 SWAP1 PUSH2 0x18F2 JUMP JUMPDEST PUSH1 0x40 MLOAD DUP1 SWAP2 SUB SWAP1 REVERT JUMPDEST DUP1 PUSH1 0x6 PUSH1 0x0 PUSH2 0x100 EXP DUP2 SLOAD DUP2 PUSH20 0xFFFFFFFFFFFFFFFFFFFFFFFFFFFFFFFFFFFFFFFF MUL NOT AND SWAP1 DUP4 PUSH20 0xFFFFFFFFFFFFFFFFFFFFFFFFFFFFFFFFFFFFFFFF AND MUL OR SWAP1 SSTORE POP POP JUMP JUMPDEST PUSH1 0x0 PUSH1 0x5 PUSH1 0x0 SWAP1 SLOAD SWAP1 PUSH2 0x100 EXP SWAP1 DIV PUSH20 0xFFFFFFFFFFFFFFFFFFFFFFFFFFFFFFFFFFFFFFFF AND SWAP1 POP SWAP1 JUMP JUMPDEST PUSH1 0x0 DUP1 PUSH1 0x6 PUSH1 0x0 SWAP1 SLOAD SWAP1 PUSH2 0x100 EXP SWAP1 DIV PUSH20 0xFFFFFFFFFFFFFFFFFFFFFFFFFFFFFFFFFFFFFFFF AND PUSH20 0xFFFFFFFFFFFFFFFFFFFFFFFFFFFFFFFFFFFFFFFF AND PUSH4 0xFEAF968C PUSH1 0x40 MLOAD DUP2 PUSH4 0xFFFFFFFF AND PUSH1 0xE0 SHL DUP2 MSTORE PUSH1 0x4 ADD PUSH1 0xA0 PUSH1 0x40 MLOAD DUP1 DUP4 SUB DUP2 DUP7 GAS STATICCALL ISZERO DUP1 ISZERO PUSH2 0x8BF JUMPI RETURNDATASIZE PUSH1 0x0 DUP1 RETURNDATACOPY RETURNDATASIZE PUSH1 0x0 REVERT JUMPDEST POP POP POP POP PUSH1 0x40 MLOAD RETURNDATASIZE PUSH1 0x1F NOT PUSH1 0x1F DUP3 ADD AND DUP3 ADD DUP1 PUSH1 0x40 MSTORE POP DUP2 ADD SWAP1 PUSH2 0x8E3 SWAP2 SWAP1 PUSH2 0x199F JUMP JUMPDEST POP POP POP SWAP2 POP POP PUSH1 0x0 DUP2 SGT PUSH2 0x92C JUMPI PUSH1 0x40 MLOAD PUSH32 0x8C379A000000000000000000000000000000000000000000000000000000000 DUP2 MSTORE PUSH1 0x4 ADD PUSH2 0x923 SWAP1 PUSH2 0x1A66 JUMP JUMPDEST PUSH1 0x40 MLOAD DUP1 SWAP2 SUB SWAP1 REVERT JUMPDEST DUP1 SWAP2 POP POP SWAP1 JUMP JUMPDEST PUSH1 0x60 PUSH1 0x4 DUP1 SLOAD PUSH2 0x942 SWAP1 PUSH2 0x1774 JUMP JUMPDEST DUP1 PUSH1 0x1F ADD PUSH1 0x20 DUP1 SWAP2 DIV MUL PUSH1 0x20 ADD PUSH1 0x40 MLOAD SWAP1 DUP2 ADD PUSH1 0x40 MSTORE DUP1 SWAP3 SWAP2 SWAP1 DUP2 DUP2 MSTORE PUSH1 0x20 ADD DUP3 DUP1 SLOAD PUSH2 0x96E SWAP1 PUSH2 0x1774 JUMP JUMPDEST DUP1 ISZERO PUSH2 0x9BB JUMPI DUP1 PUSH1 0x1F LT PUSH2 0x990 JUMPI PUSH2 0x100 DUP1 DUP4 SLOAD DIV MUL DUP4 MSTORE SWAP2 PUSH1 0x20 ADD SWAP2 PUSH2 0x9BB JUMP JUMPDEST DUP3 ADD SWAP2 SWAP1 PUSH1 0x0 MSTORE PUSH1 0x20 PUSH1 0x0 KECCAK256 SWAP1 JUMPDEST DUP2 SLOAD DUP2 MSTORE SWAP1 PUSH1 0x1 ADD SWAP1 PUSH1 0x20 ADD DUP1 DUP4 GT PUSH2 0x99E JUMPI DUP3 SWAP1 SUB PUSH1 0x1F AND DUP3 ADD SWAP2 JUMPDEST POP POP POP POP POP SWAP1 POP SWAP1 JUMP JUMPDEST PUSH1 0x0 DUP1 PUSH2 0x9D0 PUSH2 0xB19 JUMP JUMPDEST SWAP1 POP PUSH1 0x0 DUP2 GT PUSH2 0xA15 JUMPI PUSH1 0x40 MLOAD PUSH32 0x8C379A000000000000000000000000000000000000000000000000000000000 DUP2 MSTORE PUSH1 0x4 ADD PUSH2 0xA0C SWAP1 PUSH2 0x1AD2 JUMP JUMPDEST PUSH1 0x40 MLOAD DUP1 SWAP2 SUB SWAP1 REVERT JUMPDEST DUP1 PUSH1 0x12 PUSH1 0xA PUSH2 0xA24 SWAP2 SWAP1 PUSH2 0x1C54 JUMP JUMPDEST DUP5 PUSH2 0xA2F SWAP2 SWAP1 PUSH2 0x1C9F JUMP JUMPDEST PUSH2 0xA39 SWAP2 SWAP1 PUSH2 0x1D10 JUMP JUMPDEST SWAP2 POP POP SWAP2 SWAP1 POP JUMP JUMPDEST PUSH1 0x0 DUP1 PUSH2 0xA4C PUSH2 0xBD7 JUMP JUMPDEST SWAP1 POP PUSH2 0xA59 DUP2 DUP6 DUP6 PUSH2 0xC86 JUMP JUMPDEST PUSH1 0x1 SWAP2 POP POP SWAP3 SWAP2 POP POP JUMP JUMPDEST PUSH1 0x0 DUP1 PUSH1 0x0 DUP1 PUSH2 0xA72 PUSH2 0xB19 JUMP JUMPDEST SWAP4 POP DUP4 SWAP3 POP PUSH2 0xA7F PUSH2 0x521 JUMP JUMPDEST SWAP2 POP PUSH1 0x8 SLOAD SWAP1 POP SWAP1 SWAP2 SWAP3 SWAP4 JUMP JUMPDEST PUSH1 0x8 SLOAD DUP2 JUMP JUMPDEST PUSH1 0x0 PUSH1 0x1 PUSH1 0x0 DUP5 PUSH20 0xFFFFFFFFFFFFFFFFFFFFFFFFFFFFFFFFFFFFFFFF AND PUSH20 0xFFFFFFFFFFFFFFFFFFFFFFFFFFFFFFFFFFFFFFFF AND DUP2 MSTORE PUSH1 0x20 ADD SWAP1 DUP2 MSTORE PUSH1 0x20 ADD PUSH1 0x0 KECCAK256 PUSH1 0x0 DUP4 PUSH20 0xFFFFFFFFFFFFFFFFFFFFFFFFFFFFFFFFFFFFFFFF AND PUSH20 0xFFFFFFFFFFFFFFFFFFFFFFFFFFFFFFFFFFFFFFFF AND DUP2 MSTORE PUSH1 0x20 ADD SWAP1 DUP2 MSTORE PUSH1 0x20 ADD PUSH1 0x0 KECCAK256 SLOAD SWAP1 POP SWAP3 SWAP2 POP POP JUMP JUMPDEST PUSH1 0x0 DUP1 PUSH1 0x7 SLOAD SWAP1 POP PUSH1 0x8 PUSH1 0x12 PUSH2 0xB2F SWAP2 SWAP1 PUSH2 0x1D41 JUMP JUMPDEST PUSH1 0xA PUSH2 0xB3B SWAP2 SWAP1 PUSH2 0x1C54 JUMP JUMPDEST DUP2 PUSH2 0xB46 SWAP2 SWAP1 PUSH2 0x1C9F JUMP JUMPDEST SWAP2 POP POP SWAP1 JUMP JUMPDEST PUSH1 0x8 DUP2 JUMP JUMPDEST PUSH2 0xB59 PUSH2 0xD7A JUMP JUMPDEST PUSH1 0x0 PUSH20 0xFFFFFFFFFFFFFFFFFFFFFFFFFFFFFFFFFFFFFFFF AND DUP2 PUSH20 0xFFFFFFFFFFFFFFFFFFFFFFFFFFFFFFFFFFFFFFFF AND SUB PUSH2 0xBCB JUMPI PUSH1 0x0 PUSH1 0x40 MLOAD PUSH32 0x1E4FBDF700000000000000000000000000000000000000000000000000000000 DUP2 MSTORE PUSH1 0x4 ADD PUSH2 0xBC2 SWAP2 SWAP1 PUSH2 0x16A5 JUMP JUMPDEST PUSH1 0x40 MLOAD DUP1 SWAP2 SUB SWAP1 REVERT JUMPDEST PUSH2 0xBD4 DUP2 PUSH2 0xF05 JUMP JUMPDEST POP JUMP JUMPDEST PUSH1 0x0 CALLER SWAP1 POP SWAP1 JUMP JUMPDEST PUSH2 0xBEC DUP4 DUP4 DUP4 PUSH1 0x1 PUSH2 0xFCB JUMP JUMPDEST POP POP POP JUMP JUMPDEST PUSH1 0x0 PUSH2 0xBFD DUP5 DUP5 PUSH2 0xA92 JUMP JUMPDEST SWAP1 POP PUSH32 0xFFFFFFFFFFFFFFFFFFFFFFFFFFFFFFFFFFFFFFFFFFFFFFFFFFFFFFFFFFFFFFFF DUP2 LT ISZERO PUSH2 0xC80 JUMPI DUP2 DUP2 LT ISZERO PUSH2 0xC70 JUMPI DUP3 DUP2 DUP4 PUSH1 0x40 MLOAD PUSH32 0xFB8F41B200000000000000000000000000000000000000000000000000000000 DUP2 MSTORE PUSH1 0x4 ADD PUSH2 0xC67 SWAP4 SWAP3 SWAP2 SWAP1 PUSH2 0x1D75 JUMP JUMPDEST PUSH1 0x40 MLOAD DUP1 SWAP2 SUB SWAP1 REVERT JUMPDEST PUSH2 0xC7F DUP5 DUP5 DUP5 DUP5 SUB PUSH1 0x0 PUSH2 0xFCB JUMP JUMPDEST JUMPDEST POP POP POP POP JUMP JUMPDEST PUSH1 0x0 PUSH20 0xFFFFFFFFFFFFFFFFFFFFFFFFFFFFFFFFFFFFFFFF AND DUP4 PUSH20 0xFFFFFFFFFFFFFFFFFFFFFFFFFFFFFFFFFFFFFFFF AND SUB PUSH2 0xCF8 JUMPI PUSH1 0x0 PUSH1 0x40 MLOAD PUSH32 0x96C6FD1E00000000000000000000000000000000000000000000000000000000 DUP2 MSTORE PUSH1 0x4 ADD PUSH2 0xCEF SWAP2 SWAP1 PUSH2 0x16A5 JUMP JUMPDEST PUSH1 0x40 MLOAD DUP1 SWAP2 SUB SWAP1 REVERT JUMPDEST PUSH1 0x0 PUSH20 0xFFFFFFFFFFFFFFFFFFFFFFFFFFFFFFFFFFFFFFFF AND DUP3 PUSH20 0xFFFFFFFFFFFFFFFFFFFFFFFFFFFFFFFFFFFFFFFF AND SUB PUSH2 0xD6A JUMPI PUSH1 0x0 PUSH1 0x40 MLOAD PUSH32 0xEC442F0500000000000000000000000000000000000000000000000000000000 DUP2 MSTORE PUSH1 0x4 ADD PUSH2 0xD61 SWAP2 SWAP1 PUSH2 0x16A5 JUMP JUMPDEST PUSH1 0x40 MLOAD DUP1 SWAP2 SUB SWAP1 REVERT JUMPDEST PUSH2 0xD75 DUP4 DUP4 DUP4 PUSH2 0x11A2 JUMP JUMPDEST POP POP POP JUMP JUMPDEST PUSH2 0xD82 PUSH2 0xBD7 JUMP JUMPDEST PUSH20 0xFFFFFFFFFFFFFFFFFFFFFFFFFFFFFFFFFFFFFFFF AND PUSH2 0xDA0 PUSH2 0x825 JUMP JUMPDEST PUSH20 0xFFFFFFFFFFFFFFFFFFFFFFFFFFFFFFFFFFFFFFFF AND EQ PUSH2 0xDFF JUMPI PUSH2 0xDC3 PUSH2 0xBD7 JUMP JUMPDEST PUSH1 0x40 MLOAD PUSH32 0x118CDAA700000000000000000000000000000000000000000000000000000000 DUP2 MSTORE PUSH1 0x4 ADD PUSH2 0xDF6 SWAP2 SWAP1 PUSH2 0x16A5 JUMP JUMPDEST PUSH1 0x40 MLOAD DUP1 SWAP2 SUB SWAP1 REVERT JUMPDEST JUMP JUMPDEST PUSH1 0x0 PUSH20 0xFFFFFFFFFFFFFFFFFFFFFFFFFFFFFFFFFFFFFFFF AND DUP3 PUSH20 0xFFFFFFFFFFFFFFFFFFFFFFFFFFFFFFFFFFFFFFFF AND SUB PUSH2 0xE73 JUMPI PUSH1 0x0 PUSH1 0x40 MLOAD PUSH32 0xEC442F0500000000000000000000000000000000000000000000000000000000 DUP2 MSTORE PUSH1 0x4 ADD PUSH2 0xE6A SWAP2 SWAP1 PUSH2 0x16A5 JUMP JUMPDEST PUSH1 0x40 MLOAD DUP1 SWAP2 SUB SWAP1 REVERT JUMPDEST PUSH2 0xE7F PUSH1 0x0 DUP4 DUP4 PUSH2 0x11A2 JUMP JUMPDEST POP POP JUMP JUMPDEST PUSH1 0x0 PUSH20 0xFFFFFFFFFFFFFFFFFFFFFFFFFFFFFFFFFFFFFFFF AND DUP3 PUSH20 0xFFFFFFFFFFFFFFFFFFFFFFFFFFFFFFFFFFFFFFFF AND SUB PUSH2 0xEF5 JUMPI PUSH1 0x0 PUSH1 0x40 MLOAD PUSH32 0x96C6FD1E00000000000000000000000000000000000000000000000000000000 DUP2 MSTORE PUSH1 0x4 ADD PUSH2 0xEEC SWAP2 SWAP1 PUSH2 0x16A5 JUMP JUMPDEST PUSH1 0x40 MLOAD DUP1 SWAP2 SUB SWAP1 REVERT JUMPDEST PUSH2 0xF01 DUP3 PUSH1 0x0 DUP4 PUSH2 0x11A2 JUMP JUMPDEST POP POP JUMP JUMPDEST PUSH1 0x0 PUSH1 0x5 PUSH1 0x0 SWAP1 SLOAD SWAP1 PUSH2 0x100 EXP SWAP1 DIV PUSH20 0xFFFFFFFFFFFFFFFFFFFFFFFFFFFFFFFFFFFFFFFF AND SWAP1 POP DUP2 PUSH1 0x5 PUSH1 0x0 PUSH2 0x100 EXP DUP2 SLOAD DUP2 PUSH20 0xFFFFFFFFFFFFFFFFFFFFFFFFFFFFFFFFFFFFFFFF MUL NOT AND SWAP1 DUP4 PUSH20 0xFFFFFFFFFFFFFFFFFFFFFFFFFFFFFFFFFFFFFFFF AND MUL OR SWAP1 SSTORE POP DUP2 PUSH20 0xFFFFFFFFFFFFFFFFFFFFFFFFFFFFFFFFFFFFFFFF AND DUP2 PUSH20 0xFFFFFFFFFFFFFFFFFFFFFFFFFFFFFFFFFFFFFFFF AND PUSH32 0x8BE0079C531659141344CD1FD0A4F28419497F9722A3DAAFE3B4186F6B6457E0 PUSH1 0x40 MLOAD PUSH1 0x40 MLOAD DUP1 SWAP2 SUB SWAP1 LOG3 POP POP JUMP JUMPDEST PUSH1 0x0 PUSH20 0xFFFFFFFFFFFFFFFFFFFFFFFFFFFFFFFFFFFFFFFF AND DUP5 PUSH20 0xFFFFFFFFFFFFFFFFFFFFFFFFFFFFFFFFFFFFFFFF AND SUB PUSH2 0x103D JUMPI PUSH1 0x0 PUSH1 0x40 MLOAD PUSH32 0xE602DF0500000000000000000000000000000000000000000000000000000000 DUP2 MSTORE PUSH1 0x4 ADD PUSH2 0x1034 SWAP2 SWAP1 PUSH2 0x16A5 JUMP JUMPDEST PUSH1 0x40 MLOAD DUP1 SWAP2 SUB SWAP1 REVERT JUMPDEST PUSH1 0x0 PUSH20 0xFFFFFFFFFFFFFFFFFFFFFFFFFFFFFFFFFFFFFFFF AND DUP4 PUSH20 0xFFFFFFFFFFFFFFFFFFFFFFFFFFFFFFFFFFFFFFFF AND SUB PUSH2 0x10AF JUMPI PUSH1 0x0 PUSH1 0x40 MLOAD PUSH32 0x94280D6200000000000000000000000000000000000000000000000000000000 DUP2 MSTORE PUSH1 0x4 ADD PUSH2 0x10A6 SWAP2 SWAP1 PUSH2 0x16A5 JUMP JUMPDEST PUSH1 0x40 MLOAD DUP1 SWAP2 SUB SWAP1 REVERT JUMPDEST DUP2 PUSH1 0x1 PUSH1 0x0 DUP7 PUSH20 0xFFFFFFFFFFFFFFFFFFFFFFFFFFFFFFFFFFFFFFFF AND PUSH20 0xFFFFFFFFFFFFFFFFFFFFFFFFFFFFFFFFFFFFFFFF AND DUP2 MSTORE PUSH1 0x20 ADD SWAP1 DUP2 MSTORE PUSH1 0x20 ADD PUSH1 0x0 KECCAK256 PUSH1 0x0 DUP6 PUSH20 0xFFFFFFFFFFFFFFFFFFFFFFFFFFFFFFFFFFFFFFFF AND PUSH20 0xFFFFFFFFFFFFFFFFFFFFFFFFFFFFFFFFFFFFFFFF AND DUP2 MSTORE PUSH1 0x20 ADD SWAP1 DUP2 MSTORE PUSH1 0x20 ADD PUSH1 0x0 KECCAK256 DUP2 SWAP1 SSTORE POP DUP1 ISZERO PUSH2 0x119C JUMPI DUP3 PUSH20 0xFFFFFFFFFFFFFFFFFFFFFFFFFFFFFFFFFFFFFFFF AND DUP5 PUSH20 0xFFFFFFFFFFFFFFFFFFFFFFFFFFFFFFFFFFFFFFFF AND PUSH32 0x8C5BE1E5EBEC7D5BD14F71427D1E84F3DD0314C0F7B2291E5B200AC8C7C3B925 DUP5 PUSH1 0x40 MLOAD PUSH2 0x1193 SWAP2 SWAP1 PUSH2 0x1597 JUMP JUMPDEST PUSH1 0x40 MLOAD DUP1 SWAP2 SUB SWAP1 LOG3 JUMPDEST POP POP POP POP JUMP JUMPDEST PUSH1 0x0 PUSH20 0xFFFFFFFFFFFFFFFFFFFFFFFFFFFFFFFFFFFFFFFF AND DUP4 PUSH20 0xFFFFFFFFFFFFFFFFFFFFFFFFFFFFFFFFFFFFFFFF AND SUB PUSH2 0x11F4 JUMPI DUP1 PUSH1 0x2 PUSH1 0x0 DUP3 DUP3 SLOAD PUSH2 0x11E8 SWAP2 SWAP1 PUSH2 0x1DAC JUMP JUMPDEST SWAP3 POP POP DUP2 SWAP1 SSTORE POP PUSH2 0x12C7 JUMP JUMPDEST PUSH1 0x0 DUP1 PUSH1 0x0 DUP6 PUSH20 0xFFFFFFFFFFFFFFFFFFFFFFFFFFFFFFFFFFFFFFFF AND PUSH20 0xFFFFFFFFFFFFFFFFFFFFFFFFFFFFFFFFFFFFFFFF AND DUP2 MSTORE PUSH1 0x20 ADD SWAP1 DUP2 MSTORE PUSH1 0x20 ADD PUSH1 0x0 KECCAK256 SLOAD SWAP1 POP DUP2 DUP2 LT ISZERO PUSH2 0x1280 JUMPI DUP4 DUP2 DUP4 PUSH1 0x40 MLOAD PUSH32 0xE450D38C00000000000000000000000000000000000000000000000000000000 DUP2 MSTORE PUSH1 0x4 ADD PUSH2 0x1277 SWAP4 SWAP3 SWAP2 SWAP1 PUSH2 0x1D75 JUMP JUMPDEST PUSH1 0x40 MLOAD DUP1 SWAP2 SUB SWAP1 REVERT JUMPDEST DUP2 DUP2 SUB PUSH1 0x0 DUP1 DUP7 PUSH20 0xFFFFFFFFFFFFFFFFFFFFFFFFFFFFFFFFFFFFFFFF AND PUSH20 0xFFFFFFFFFFFFFFFFFFFFFFFFFFFFFFFFFFFFFFFF AND DUP2 MSTORE PUSH1 0x20 ADD SWAP1 DUP2 MSTORE PUSH1 0x20 ADD PUSH1 0x0 KECCAK256 DUP2 SWAP1 SSTORE POP POP JUMPDEST PUSH1 0x0 PUSH20 0xFFFFFFFFFFFFFFFFFFFFFFFFFFFFFFFFFFFFFFFF AND DUP3 PUSH20 0xFFFFFFFFFFFFFFFFFFFFFFFFFFFFFFFFFFFFFFFF AND SUB PUSH2 0x1310 JUMPI DUP1 PUSH1 0x2 PUSH1 0x0 DUP3 DUP3 SLOAD SUB SWAP3 POP POP DUP2 SWAP1 SSTORE POP PUSH2 0x135D JUMP JUMPDEST DUP1 PUSH1 0x0 DUP1 DUP5 PUSH20 0xFFFFFFFFFFFFFFFFFFFFFFFFFFFFFFFFFFFFFFFF AND PUSH20 0xFFFFFFFFFFFFFFFFFFFFFFFFFFFFFFFFFFFFFFFF AND DUP2 MSTORE PUSH1 0x20 ADD SWAP1 DUP2 MSTORE PUSH1 0x20 ADD PUSH1 0x0 KECCAK256 PUSH1 0x0 DUP3 DUP3 SLOAD ADD SWAP3 POP POP DUP2 SWAP1 SSTORE POP JUMPDEST DUP2 PUSH20 0xFFFFFFFFFFFFFFFFFFFFFFFFFFFFFFFFFFFFFFFF AND DUP4 PUSH20 0xFFFFFFFFFFFFFFFFFFFFFFFFFFFFFFFFFFFFFFFF AND PUSH32 0xDDF252AD1BE2C89B69C2B068FC378DAA952BA7F163C4A11628F55A4DF523B3EF DUP4 PUSH1 0x40 MLOAD PUSH2 0x13BA SWAP2 SWAP1 PUSH2 0x1597 JUMP JUMPDEST PUSH1 0x40 MLOAD DUP1 SWAP2 SUB SWAP1 LOG3 POP POP POP JUMP JUMPDEST PUSH1 0x0 DUP2 MLOAD SWAP1 POP SWAP2 SWAP1 POP JUMP JUMPDEST PUSH1 0x0 DUP3 DUP3 MSTORE PUSH1 0x20 DUP3 ADD SWAP1 POP SWAP3 SWAP2 POP POP JUMP JUMPDEST PUSH1 0x0 JUMPDEST DUP4 DUP2 LT ISZERO PUSH2 0x1401 JUMPI DUP1 DUP3 ADD MLOAD DUP2 DUP5 ADD MSTORE PUSH1 0x20 DUP2 ADD SWAP1 POP PUSH2 0x13E6 JUMP JUMPDEST PUSH1 0x0 DUP5 DUP5 ADD MSTORE POP POP POP POP JUMP JUMPDEST PUSH1 0x0 PUSH1 0x1F NOT PUSH1 0x1F DUP4 ADD AND SWAP1 POP SWAP2 SWAP1 POP JUMP JUMPDEST PUSH1 0x0 PUSH2 0x1429 DUP3 PUSH2 0x13C7 JUMP JUMPDEST PUSH2 0x1433 DUP2 DUP6 PUSH2 0x13D2 JUMP JUMPDEST SWAP4 POP PUSH2 0x1443 DUP2 DUP6 PUSH1 0x20 DUP7 ADD PUSH2 0x13E3 JUMP JUMPDEST PUSH2 0x144C DUP2 PUSH2 0x140D JUMP JUMPDEST DUP5 ADD SWAP2 POP POP SWAP3 SWAP2 POP POP JUMP JUMPDEST PUSH1 0x0 PUSH1 0x20 DUP3 ADD SWAP1 POP DUP2 DUP2 SUB PUSH1 0x0 DUP4 ADD MSTORE PUSH2 0x1471 DUP2 DUP5 PUSH2 0x141E JUMP JUMPDEST SWAP1 POP SWAP3 SWAP2 POP POP JUMP JUMPDEST PUSH1 0x0 DUP1 REVERT JUMPDEST PUSH1 0x0 PUSH20 0xFFFFFFFFFFFFFFFFFFFFFFFFFFFFFFFFFFFFFFFF DUP3 AND SWAP1 POP SWAP2 SWAP1 POP JUMP JUMPDEST PUSH1 0x0 PUSH2 0x14A9 DUP3 PUSH2 0x147E JUMP JUMPDEST SWAP1 POP SWAP2 SWAP1 POP JUMP JUMPDEST PUSH2 0x14B9 DUP2 PUSH2 0x149E JUMP JUMPDEST DUP2 EQ PUSH2 0x14C4 JUMPI PUSH1 0x0 DUP1 REVERT JUMPDEST POP JUMP JUMPDEST PUSH1 0x0 DUP2 CALLDATALOAD SWAP1 POP PUSH2 0x14D6 DUP2 PUSH2 0x14B0 JUMP JUMPDEST SWAP3 SWAP2 POP POP JUMP JUMPDEST PUSH1 0x0 DUP2 SWAP1 POP SWAP2 SWAP1 POP JUMP JUMPDEST PUSH2 0x14EF DUP2 PUSH2 0x14DC JUMP JUMPDEST DUP2 EQ PUSH2 0x14FA JUMPI PUSH1 0x0 DUP1 REVERT JUMPDEST POP JUMP JUMPDEST PUSH1 0x0 DUP2 CALLDATALOAD SWAP1 POP PUSH2 0x150C DUP2 PUSH2 0x14E6 JUMP JUMPDEST SWAP3 SWAP2 POP POP JUMP JUMPDEST PUSH1 0x0 DUP1 PUSH1 0x40 DUP4 DUP6 SUB SLT ISZERO PUSH2 0x1529 JUMPI PUSH2 0x1528 PUSH2 0x1479 JUMP JUMPDEST JUMPDEST PUSH1 0x0 PUSH2 0x1537 DUP6 DUP3 DUP7 ADD PUSH2 0x14C7 JUMP JUMPDEST SWAP3 POP POP PUSH1 0x20 PUSH2 0x1548 DUP6 DUP3 DUP7 ADD PUSH2 0x14FD JUMP JUMPDEST SWAP2 POP POP SWAP3 POP SWAP3 SWAP1 POP JUMP JUMPDEST PUSH1 0x0 DUP2 ISZERO ISZERO SWAP1 POP SWAP2 SWAP1 POP JUMP JUMPDEST PUSH2 0x1567 DUP2 PUSH2 0x1552 JUMP JUMPDEST DUP3 MSTORE POP POP JUMP JUMPDEST PUSH1 0x0 PUSH1 0x20 DUP3 ADD SWAP1 POP PUSH2 0x1582 PUSH1 0x0 DUP4 ADD DUP5 PUSH2 0x155E JUMP JUMPDEST SWAP3 SWAP2 POP POP JUMP JUMPDEST PUSH2 0x1591 DUP2 PUSH2 0x14DC JUMP JUMPDEST DUP3 MSTORE POP POP JUMP JUMPDEST PUSH1 0x0 PUSH1 0x20 DUP3 ADD SWAP1 POP PUSH2 0x15AC PUSH1 0x0 DUP4 ADD DUP5 PUSH2 0x1588 JUMP JUMPDEST SWAP3 SWAP2 POP POP JUMP JUMPDEST PUSH1 0x0 DUP1 PUSH1 0x0 PUSH1 0x60 DUP5 DUP7 SUB SLT ISZERO PUSH2 0x15CB JUMPI PUSH2 0x15CA PUSH2 0x1479 JUMP JUMPDEST JUMPDEST PUSH1 0x0 PUSH2 0x15D9 DUP7 DUP3 DUP8 ADD PUSH2 0x14C7 JUMP JUMPDEST SWAP4 POP POP PUSH1 0x20 PUSH2 0x15EA DUP7 DUP3 DUP8 ADD PUSH2 0x14C7 JUMP JUMPDEST SWAP3 POP POP PUSH1 0x40 PUSH2 0x15FB DUP7 DUP3 DUP8 ADD PUSH2 0x14FD JUMP JUMPDEST SWAP2 POP POP SWAP3 POP SWAP3 POP SWAP3 JUMP JUMPDEST PUSH1 0x0 PUSH1 0xFF DUP3 AND SWAP1 POP SWAP2 SWAP1 POP JUMP JUMPDEST PUSH2 0x161B DUP2 PUSH2 0x1605 JUMP JUMPDEST DUP3 MSTORE POP POP JUMP JUMPDEST PUSH1 0x0 PUSH1 0x20 DUP3 ADD SWAP1 POP PUSH2 0x1636 PUSH1 0x0 DUP4 ADD DUP5 PUSH2 0x1612 JUMP JUMPDEST SWAP3 SWAP2 POP POP JUMP JUMPDEST PUSH1 0x0 PUSH1 0x20 DUP3 DUP5 SUB SLT ISZERO PUSH2 0x1652 JUMPI PUSH2 0x1651 PUSH2 0x1479 JUMP JUMPDEST JUMPDEST PUSH1 0x0 PUSH2 0x1660 DUP5 DUP3 DUP6 ADD PUSH2 0x14FD JUMP JUMPDEST SWAP2 POP POP SWAP3 SWAP2 POP POP JUMP JUMPDEST PUSH1 0x0 PUSH1 0x20 DUP3 DUP5 SUB SLT ISZERO PUSH2 0x167F JUMPI PUSH2 0x167E PUSH2 0x1479 JUMP JUMPDEST JUMPDEST PUSH1 0x0 PUSH2 0x168D DUP5 DUP3 DUP6 ADD PUSH2 0x14C7 JUMP JUMPDEST SWAP2 POP POP SWAP3 SWAP2 POP POP JUMP JUMPDEST PUSH2 0x169F DUP2 PUSH2 0x149E JUMP JUMPDEST DUP3 MSTORE POP POP JUMP JUMPDEST PUSH1 0x0 PUSH1 0x20 DUP3 ADD SWAP1 POP PUSH2 0x16BA PUSH1 0x0 DUP4 ADD DUP5 PUSH2 0x1696 JUMP JUMPDEST SWAP3 SWAP2 POP POP JUMP JUMPDEST PUSH1 0x0 PUSH1 0x80 DUP3 ADD SWAP1 POP PUSH2 0x16D5 PUSH1 0x0 DUP4 ADD DUP8 PUSH2 0x1588 JUMP JUMPDEST PUSH2 0x16E2 PUSH1 0x20 DUP4 ADD DUP7 PUSH2 0x1588 JUMP JUMPDEST PUSH2 0x16EF PUSH1 0x40 DUP4 ADD DUP6 PUSH2 0x1588 JUMP JUMPDEST PUSH2 0x16FC PUSH1 0x60 DUP4 ADD DUP5 PUSH2 0x1588 JUMP JUMPDEST SWAP6 SWAP5 POP POP POP POP POP JUMP JUMPDEST PUSH1 0x0 DUP1 PUSH1 0x40 DUP4 DUP6 SUB SLT ISZERO PUSH2 0x171C JUMPI PUSH2 0x171B PUSH2 0x1479 JUMP JUMPDEST JUMPDEST PUSH1 0x0 PUSH2 0x172A DUP6 DUP3 DUP7 ADD PUSH2 0x14C7 JUMP JUMPDEST SWAP3 POP POP PUSH1 0x20 PUSH2 0x173B DUP6 DUP3 DUP7 ADD PUSH2 0x14C7 JUMP JUMPDEST SWAP2 POP POP SWAP3 POP SWAP3 SWAP1 POP JUMP JUMPDEST PUSH32 0x4E487B7100000000000000000000000000000000000000000000000000000000 PUSH1 0x0 MSTORE PUSH1 0x22 PUSH1 0x4 MSTORE PUSH1 0x24 PUSH1 0x0 REVERT JUMPDEST PUSH1 0x0 PUSH1 0x2 DUP3 DIV SWAP1 POP PUSH1 0x1 DUP3 AND DUP1 PUSH2 0x178C JUMPI PUSH1 0x7F DUP3 AND SWAP2 POP JUMPDEST PUSH1 0x20 DUP3 LT DUP2 SUB PUSH2 0x179F JUMPI PUSH2 0x179E PUSH2 0x1745 JUMP JUMPDEST JUMPDEST POP SWAP2 SWAP1 POP JUMP JUMPDEST PUSH32 0x416D6F756E74206D7573742062652067726561746572207468616E2030000000 PUSH1 0x0 DUP3 ADD MSTORE POP JUMP JUMPDEST PUSH1 0x0 PUSH2 0x17DB PUSH1 0x1D DUP4 PUSH2 0x13D2 JUMP JUMPDEST SWAP2 POP PUSH2 0x17E6 DUP3 PUSH2 0x17A5 JUMP JUMPDEST PUSH1 0x20 DUP3 ADD SWAP1 POP SWAP2 SWAP1 POP JUMP JUMPDEST PUSH1 0x0 PUSH1 0x20 DUP3 ADD SWAP1 POP DUP2 DUP2 SUB PUSH1 0x0 DUP4 ADD MSTORE PUSH2 0x180A DUP2 PUSH2 0x17CE JUMP JUMPDEST SWAP1 POP SWAP2 SWAP1 POP JUMP JUMPDEST PUSH32 0x546F6B656E20616D6F756E74206973207A65726F000000000000000000000000 PUSH1 0x0 DUP3 ADD MSTORE POP JUMP JUMPDEST PUSH1 0x0 PUSH2 0x1847 PUSH1 0x14 DUP4 PUSH2 0x13D2 JUMP JUMPDEST SWAP2 POP PUSH2 0x1852 DUP3 PUSH2 0x1811 JUMP JUMPDEST PUSH1 0x20 DUP3 ADD SWAP1 POP SWAP2 SWAP1 POP JUMP JUMPDEST PUSH1 0x0 PUSH1 0x20 DUP3 ADD SWAP1 POP DUP2 DUP2 SUB PUSH1 0x0 DUP4 ADD MSTORE PUSH2 0x1876 DUP2 PUSH2 0x183A JUMP JUMPDEST SWAP1 POP SWAP2 SWAP1 POP JUMP JUMPDEST PUSH1 0x0 PUSH1 0x40 DUP3 ADD SWAP1 POP PUSH2 0x1892 PUSH1 0x0 DUP4 ADD DUP6 PUSH2 0x1588 JUMP JUMPDEST PUSH2 0x189F PUSH1 0x20 DUP4 ADD DUP5 PUSH2 0x1588 JUMP JUMPDEST SWAP4 SWAP3 POP POP POP JUMP JUMPDEST PUSH32 0x496E76616C696420616464726573730000000000000000000000000000000000 PUSH1 0x0 DUP3 ADD MSTORE POP JUMP JUMPDEST PUSH1 0x0 PUSH2 0x18DC PUSH1 0xF DUP4 PUSH2 0x13D2 JUMP JUMPDEST SWAP2 POP PUSH2 0x18E7 DUP3 PUSH2 0x18A6 JUMP JUMPDEST PUSH1 0x20 DUP3 ADD SWAP1 POP SWAP2 SWAP1 POP JUMP JUMPDEST PUSH1 0x0 PUSH1 0x20 DUP3 ADD SWAP1 POP DUP2 DUP2 SUB PUSH1 0x0 DUP4 ADD MSTORE PUSH2 0x190B DUP2 PUSH2 0x18CF JUMP JUMPDEST SWAP1 POP SWAP2 SWAP1 POP JUMP JUMPDEST PUSH1 0x0 PUSH10 0xFFFFFFFFFFFFFFFFFFFF DUP3 AND SWAP1 POP SWAP2 SWAP1 POP JUMP JUMPDEST PUSH2 0x1931 DUP2 PUSH2 0x1912 JUMP JUMPDEST DUP2 EQ PUSH2 0x193C JUMPI PUSH1 0x0 DUP1 REVERT JUMPDEST POP JUMP JUMPDEST PUSH1 0x0 DUP2 MLOAD SWAP1 POP PUSH2 0x194E DUP2 PUSH2 0x1928 JUMP JUMPDEST SWAP3 SWAP2 POP POP JUMP JUMPDEST PUSH1 0x0 DUP2 SWAP1 POP SWAP2 SWAP1 POP JUMP JUMPDEST PUSH2 0x1967 DUP2 PUSH2 0x1954 JUMP JUMPDEST DUP2 EQ PUSH2 0x1972 JUMPI PUSH1 0x0 DUP1 REVERT JUMPDEST POP JUMP JUMPDEST PUSH1 0x0 DUP2 MLOAD SWAP1 POP PUSH2 0x1984 DUP2 PUSH2 0x195E JUMP JUMPDEST SWAP3 SWAP2 POP POP JUMP JUMPDEST PUSH1 0x0 DUP2 MLOAD SWAP1 POP PUSH2 0x1999 DUP2 PUSH2 0x14E6 JUMP JUMPDEST SWAP3 SWAP2 POP POP JUMP JUMPDEST PUSH1 0x0 DUP1 PUSH1 0x0 DUP1 PUSH1 0x0 PUSH1 0xA0 DUP7 DUP9 SUB SLT ISZERO PUSH2 0x19BB JUMPI PUSH2 0x19BA PUSH2 0x1479 JUMP JUMPDEST JUMPDEST PUSH1 0x0 PUSH2 0x19C9 DUP9 DUP3 DUP10 ADD PUSH2 0x193F JUMP JUMPDEST SWAP6 POP POP PUSH1 0x20 PUSH2 0x19DA DUP9 DUP3 DUP10 ADD PUSH2 0x1975 JUMP JUMPDEST SWAP5 POP POP PUSH1 0x40 PUSH2 0x19EB DUP9 DUP3 DUP10 ADD PUSH2 0x198A JUMP JUMPDEST SWAP4 POP POP PUSH1 0x60 PUSH2 0x19FC DUP9 DUP3 DUP10 ADD PUSH2 0x198A JUMP JUMPDEST SWAP3 POP POP PUSH1 0x80 PUSH2 0x1A0D DUP9 DUP3 DUP10 ADD PUSH2 0x193F JUMP JUMPDEST SWAP2 POP POP SWAP3 SWAP6 POP SWAP3 SWAP6 SWAP1 SWAP4 POP JUMP JUMPDEST PUSH32 0x496E76616C696420707269636500000000000000000000000000000000000000 PUSH1 0x0 DUP3 ADD MSTORE POP JUMP JUMPDEST PUSH1 0x0 PUSH2 0x1A50 PUSH1 0xD DUP4 PUSH2 0x13D2 JUMP JUMPDEST SWAP2 POP PUSH2 0x1A5B DUP3 PUSH2 0x1A1A JUMP JUMPDEST PUSH1 0x20 DUP3 ADD SWAP1 POP SWAP2 SWAP1 POP JUMP JUMPDEST PUSH1 0x0 PUSH1 0x20 DUP3 ADD SWAP1 POP DUP2 DUP2 SUB PUSH1 0x0 DUP4 ADD MSTORE PUSH2 0x1A7F DUP2 PUSH2 0x1A43 JUMP JUMPDEST SWAP1 POP SWAP2 SWAP1 POP JUMP JUMPDEST PUSH32 0x5072696365206E6F742073657400000000000000000000000000000000000000 PUSH1 0x0 DUP3 ADD MSTORE POP JUMP JUMPDEST PUSH1 0x0 PUSH2 0x1ABC PUSH1 0xD DUP4 PUSH2 0x13D2 JUMP JUMPDEST SWAP2 POP PUSH2 0x1AC7 DUP3 PUSH2 0x1A86 JUMP JUMPDEST PUSH1 0x20 DUP3 ADD SWAP1 POP SWAP2 SWAP1 POP JUMP JUMPDEST PUSH1 0x0 PUSH1 0x20 DUP3 ADD SWAP1 POP DUP2 DUP2 SUB PUSH1 0x0 DUP4 ADD MSTORE PUSH2 0x1AEB DUP2 PUSH2 0x1AAF JUMP JUMPDEST SWAP1 POP SWAP2 SWAP1 POP JUMP JUMPDEST PUSH32 0x4E487B7100000000000000000000000000000000000000000000000000000000 PUSH1 0x0 MSTORE PUSH1 0x11 PUSH1 0x4 MSTORE PUSH1 0x24 PUSH1 0x0 REVERT JUMPDEST PUSH1 0x0 DUP2 PUSH1 0x1 SHR SWAP1 POP SWAP2 SWAP1 POP JUMP JUMPDEST PUSH1 0x0 DUP1 DUP3 SWAP2 POP DUP4 SWAP1 POP JUMPDEST PUSH1 0x1 DUP6 GT ISZERO PUSH2 0x1B78 JUMPI DUP1 DUP7 DIV DUP2 GT ISZERO PUSH2 0x1B54 JUMPI PUSH2 0x1B53 PUSH2 0x1AF2 JUMP JUMPDEST JUMPDEST PUSH1 0x1 DUP6 AND ISZERO PUSH2 0x1B63 JUMPI DUP1 DUP3 MUL SWAP2 POP JUMPDEST DUP1 DUP2 MUL SWAP1 POP PUSH2 0x1B71 DUP6 PUSH2 0x1B21 JUMP JUMPDEST SWAP5 POP PUSH2 0x1B38 JUMP JUMPDEST SWAP5 POP SWAP5 SWAP3 POP POP POP JUMP JUMPDEST PUSH1 0x0 DUP3 PUSH2 0x1B91 JUMPI PUSH1 0x1 SWAP1 POP PUSH2 0x1C4D JUMP JUMPDEST DUP2 PUSH2 0x1B9F JUMPI PUSH1 0x0 SWAP1 POP PUSH2 0x1C4D JUMP JUMPDEST DUP2 PUSH1 0x1 DUP2 EQ PUSH2 0x1BB5 JUMPI PUSH1 0x2 DUP2 EQ PUSH2 0x1BBF JUMPI PUSH2 0x1BEE JUMP JUMPDEST PUSH1 0x1 SWAP2 POP POP PUSH2 0x1C4D JUMP JUMPDEST PUSH1 0xFF DUP5 GT ISZERO PUSH2 0x1BD1 JUMPI PUSH2 0x1BD0 PUSH2 0x1AF2 JUMP JUMPDEST JUMPDEST DUP4 PUSH1 0x2 EXP SWAP2 POP DUP5 DUP3 GT ISZERO PUSH2 0x1BE8 JUMPI PUSH2 0x1BE7 PUSH2 0x1AF2 JUMP JUMPDEST JUMPDEST POP PUSH2 0x1C4D JUMP JUMPDEST POP PUSH1 0x20 DUP4 LT PUSH2 0x133 DUP4 LT AND PUSH1 0x4E DUP5 LT PUSH1 0xB DUP5 LT AND OR ISZERO PUSH2 0x1C23 JUMPI DUP3 DUP3 EXP SWAP1 POP DUP4 DUP2 GT ISZERO PUSH2 0x1C1E JUMPI PUSH2 0x1C1D PUSH2 0x1AF2 JUMP JUMPDEST JUMPDEST PUSH2 0x1C4D JUMP JUMPDEST PUSH2 0x1C30 DUP5 DUP5 DUP5 PUSH1 0x1 PUSH2 0x1B2E JUMP JUMPDEST SWAP3 POP SWAP1 POP DUP2 DUP5 DIV DUP2 GT ISZERO PUSH2 0x1C47 JUMPI PUSH2 0x1C46 PUSH2 0x1AF2 JUMP JUMPDEST JUMPDEST DUP2 DUP2 MUL SWAP1 POP JUMPDEST SWAP4 SWAP3 POP POP POP JUMP JUMPDEST PUSH1 0x0 PUSH2 0x1C5F DUP3 PUSH2 0x14DC JUMP JUMPDEST SWAP2 POP PUSH2 0x1C6A DUP4 PUSH2 0x14DC JUMP JUMPDEST SWAP3 POP PUSH2 0x1C97 PUSH32 0xFFFFFFFFFFFFFFFFFFFFFFFFFFFFFFFFFFFFFFFFFFFFFFFFFFFFFFFFFFFFFFFF DUP5 DUP5 PUSH2 0x1B81 JUMP JUMPDEST SWAP1 POP SWAP3 SWAP2 POP POP JUMP JUMPDEST PUSH1 0x0 PUSH2 0x1CAA DUP3 PUSH2 0x14DC JUMP JUMPDEST SWAP2 POP PUSH2 0x1CB5 DUP4 PUSH2 0x14DC JUMP JUMPDEST SWAP3 POP DUP3 DUP3 MUL PUSH2 0x1CC3 DUP2 PUSH2 0x14DC JUMP JUMPDEST SWAP2 POP DUP3 DUP3 DIV DUP5 EQ DUP4 ISZERO OR PUSH2 0x1CDA JUMPI PUSH2 0x1CD9 PUSH2 0x1AF2 JUMP JUMPDEST JUMPDEST POP SWAP3 SWAP2 POP POP JUMP JUMPDEST PUSH32 0x4E487B7100000000000000000000000000000000000000000000000000000000 PUSH1 0x0 MSTORE PUSH1 0x12 PUSH1 0x4 MSTORE PUSH1 0x24 PUSH1 0x0 REVERT JUMPDEST PUSH1 0x0 PUSH2 0x1D1B DUP3 PUSH2 0x14DC JUMP JUMPDEST SWAP2 POP PUSH2 0x1D26 DUP4 PUSH2 0x14DC JUMP JUMPDEST SWAP3 POP DUP3 PUSH2 0x1D36 JUMPI PUSH2 0x1D35 PUSH2 0x1CE1 JUMP JUMPDEST JUMPDEST DUP3 DUP3 DIV SWAP1 POP SWAP3 SWAP2 POP POP JUMP JUMPDEST PUSH1 0x0 PUSH2 0x1D4C DUP3 PUSH2 0x14DC JUMP JUMPDEST SWAP2 POP PUSH2 0x1D57 DUP4 PUSH2 0x14DC JUMP JUMPDEST SWAP3 POP DUP3 DUP3 SUB SWAP1 POP DUP2 DUP2 GT ISZERO PUSH2 0x1D6F JUMPI PUSH2 0x1D6E PUSH2 0x1AF2 JUMP JUMPDEST JUMPDEST SWAP3 SWAP2 POP POP JUMP JUMPDEST PUSH1 0x0 PUSH1 0x60 DUP3 ADD SWAP1 POP PUSH2 0x1D8A PUSH1 0x0 DUP4 ADD DUP7 PUSH2 0x1696 JUMP JUMPDEST PUSH2 0x1D97 PUSH1 0x20 DUP4 ADD DUP6 PUSH2 0x1588 JUMP JUMPDEST PUSH2 0x1DA4 PUSH1 0x40 DUP4 ADD DUP5 PUSH2 0x1588 JUMP JUMPDEST SWAP5 SWAP4 POP POP POP POP JUMP JUMPDEST PUSH1 0x0 PUSH2 0x1DB7 DUP3 PUSH2 0x14DC JUMP JUMPDEST SWAP2 POP PUSH2 0x1DC2 DUP4 PUSH2 0x14DC JUMP JUMPDEST SWAP3 POP DUP3 DUP3 ADD SWAP1 POP DUP1 DUP3 GT ISZERO PUSH2 0x1DDA JUMPI PUSH2 0x1DD9 PUSH2 0x1AF2 JUMP JUMPDEST JUMPDEST SWAP3 SWAP2 POP POP JUMP INVALID LOG2 PUSH5 0x6970667358 0x22 SLT KECCAK256 0xE5 JUMPDEST 0xBC 0x2C POP KECCAK256 SWAP6 DUP11 MUL LOG2 REVERT 0xB1 CREATE2 PREVRANDAO 0xEE 0xC 0xD9 RETURNDATACOPY 0xA7 0xB9 STOP 0xB9 DUP4 SWAP11 0xD0 SELFDESTRUCT PUSH2 0x8290 0xC3 MUL ISZERO PUSH5 0x736F6C6343 STOP ADDMOD SHR STOP CALLER "},"methodIdentifiers":{"PRICE_DECIMALS()":"f1a640f8","TOKEN_DECIMALS()":"5b7f415c","allowance(address,address)":"dd62ed3e","approve(address,uint256)":"095ea7b3","balanceOf(address)":"70a08231","burn(uint256)":"42966c68","calculateTokenAmount(uint256)":"a24bcf46","copperPrice()":"5d65982c","decimals()":"313ce567","getCopperPriceInUSD()":"e2a92a7c","getLatestPrice()":"8e15f473","getTreasuryInfo()":"c2939471","lastUpdateTime()":"c8f33c91","mint(address,uint256)":"40c10f19","name()":"06fdde03","owner()":"8da5cb5b","renounceOwnership()":"715018a6","setPriceFeed(address)":"724e78da","symbol()":"95d89b41","totalSupply()":"18160ddd","transfer(address,uint256)":"a9059cbb","transferFrom(address,address,uint256)":"23b872dd","transferOwnership(address)":"f2fde38b","updatePrice()":"673a7e28"}}}}}