{
  "_format": "hh-sol-artifact-1",
  "contractName": "Treasury",
  "sourceName": "contracts/Treasury.sol",
  "abi": [
    {
      "inputs": [],
      "stateMutability": "nonpayable",
      "type": "constructor"
    },
    {
      "inputs": [
        {
          "internalType": "address",
          "name": "owner",
          "type": "address"
        }
      ],
      "name": "OwnableInvalidOwner",
      "type": "error"
    },
    {
      "inputs": [
        {
          "internalType": "address",
          "name": "account",
          "type": "address"
        }
      ],
      "name": "OwnableUnauthorizedAccount",
      "type": "error"
    },
    {
      "anonymous": false,
      "inputs": [
        {
          "indexed": true,
          "internalType": "address",
          "name": "previousOwner",
          "type": "address"
        },
        {
          "indexed": true,
          "internalType": "address",
          "name": "newOwner",
          "type": "address"
        }
      ],
      "name": "OwnershipTransferred",
      "type": "event"
    },
    {
      "anonymous": false,
      "inputs": [
        {
          "indexed": false,
          "internalType": "uint256",
          "name": "copper",
          "type": "uint256"
        },
        {
          "indexed": false,
          "internalType": "uint256",
          "name": "usdt",
          "type": "uint256"
        },
        {
          "indexed": false,
          "internalType": "uint256",
          "name": "nav",
          "type": "uint256"
        }
      ],
      "name": "ReservesUpdated",
      "type": "event"
    },
    {
      "anonymous": false,
      "inputs": [
        {
          "indexed": false,
          "internalType": "uint256",
          "name": "newSupply",
          "type": "uint256"
        }
      ],
      "name": "SupplyUpdated",
      "type": "event"
    },
    {
      "inputs": [],
      "name": "copperReserve",
      "outputs": [
        {
          "internalType": "uint256",
          "name": "",
          "type": "uint256"
        }
      ],
      "stateMutability": "view",
      "type": "function"
    },
    {
      "inputs": [],
      "name": "getNAV",
      "outputs": [
        {
          "internalType": "uint256",
          "name": "",
          "type": "uint256"
        }
      ],
      "stateMutability": "view",
      "type": "function"
    },
    {
      "inputs": [],
      "name": "getTreasuryInfo",
      "outputs": [
        {
          "internalType": "uint256",
          "name": "_copperReserve",
          "type": "uint256"
        },
        {
          "internalType": "uint256",
          "name": "_usdtReserve",
          "type": "uint256"
        },
        {
          "internalType": "uint256",
          "name": "_totalValue",
          "type": "uint256"
        },
        {
          "internalType": "uint256",
          "name": "_nav",
          "type": "uint256"
        },
        {
          "internalType": "uint256",
          "name": "_supply",
          "type": "uint256"
        }
      ],
      "stateMutability": "view",
      "type": "function"
    },
    {
      "inputs": [],
      "name": "owner",
      "outputs": [
        {
          "internalType": "address",
          "name": "",
          "type": "address"
        }
      ],
      "stateMutability": "view",
      "type": "function"
    },
    {
      "inputs": [],
      "name": "renounceOwnership",
      "outputs": [],
      "stateMutability": "nonpayable",
      "type": "function"
    },
    {
      "inputs": [],
      "name": "totalSupply",
      "outputs": [
        {
          "internalType": "uint256",
          "name": "",
          "type": "uint256"
        }
      ],
      "stateMutability": "view",
      "type": "function"
    },
    {
      "inputs": [
        {
          "internalType": "address",
          "name": "newOwner",
          "type": "address"
        }
      ],
      "name": "transferOwnership",
      "outputs": [],
      "stateMutability": "nonpayable",
      "type": "function"
    },
    {
      "inputs": [
        {
          "internalType": "uint256",
          "name": "_copper",
          "type": "uint256"
        },
        {
          "internalType": "uint256",
          "name": "_usdt",
          "type": "uint256"
        }
      ],
      "name": "updateReserves",
      "outputs": [],
      "stateMutability": "nonpayable",
      "type": "function"
    },
    {
      "inputs": [
        {
          "internalType": "uint256",
          "name": "_newSupply",
          "type": "uint256"
        }
      ],
      "name": "updateSupply",
      "outputs": [],
      "stateMutability": "nonpayable",
      "type": "function"
    },
    {
      "inputs": [],
      "name": "usdtReserve",
      "outputs": [
        {
          "internalType": "uint256",
          "name": "",
          "type": "uint256"
        }
      ],
      "stateMutability": "view",
      "type": "function"
    }
  ],
  "bytecode": "0x608060405234801561001057600080fd5b5033600073ffffffffffffffffffffffffffffffffffffffff168173ffffffffffffffffffffffffffffffffffffffff16036100845760006040517f1e4fbdf700000000000000000000000000000000000000000000000000000000815260040161007b91906101c3565b60405180910390fd5b610093816100be60201b60201c565b50620f424060018190555062030d4060028190555069021e19e0c9bab24000006003819055506101de565b60008060009054906101000a900473ffffffffffffffffffffffffffffffffffffffff169050816000806101000a81548173ffffffffffffffffffffffffffffffffffffffff021916908373ffffffffffffffffffffffffffffffffffffffff1602179055508173ffffffffffffffffffffffffffffffffffffffff168173ffffffffffffffffffffffffffffffffffffffff167f8be0079c531659141344cd1fd0a4f28419497f9722a3daafe3b4186f6b6457e060405160405180910390a35050565b600073ffffffffffffffffffffffffffffffffffffffff82169050919050565b60006101ad82610182565b9050919050565b6101bd816101a2565b82525050565b60006020820190506101d860008301846101b4565b92915050565b610868806101ed6000396000f3fe608060405234801561001057600080fd5b506004361061009e5760003560e01c8063715018a611610066578063715018a6146101355780638da5cb5b1461013f578063ac257a6e1461015d578063c29394711461017b578063f2fde38b1461019d5761009e565b80630126c606146100a357806318160ddd146100c15780633237bd00146100df5780634d86d529146100fb5780636bd0804914610119575b600080fd5b6100ab6101b9565b6040516100b89190610535565b60405180910390f35b6100c9610215565b6040516100d69190610535565b60405180910390f35b6100f960048036038101906100f49190610581565b61021b565b005b610103610277565b6040516101109190610535565b60405180910390f35b610133600480360381019061012e91906105c1565b61027d565b005b61013d6102c6565b005b6101476102da565b604051610154919061062f565b60405180910390f35b610165610303565b6040516101729190610535565b60405180910390f35b610183610309565b60405161019495949392919061064a565b60405180910390f35b6101b760048036038101906101b291906106c9565b610343565b005b600080600354036101cd5760009050610212565b600060646002546001546101e19190610725565b6101eb9190610788565b9050600354670de0b6b3a76400008261020491906107b9565b61020e9190610788565b9150505b90565b60035481565b6102236103c9565b81600181905550806002819055507fe66cd0d1751b6e82cb9f412f722b6dea0a1eeca0fbc1b9c8c2972f16d228ee2a828261025c6101b9565b60405161026b939291906107fb565b60405180910390a15050565b60015481565b6102856103c9565b806003819055507fea4bfee7f9fb38136c61cc04b6e56efc93eaf1beef326dbc47495b358385914c816040516102bb9190610535565b60405180910390a150565b6102ce6103c9565b6102d86000610450565b565b60008060009054906101000a900473ffffffffffffffffffffffffffffffffffffffff16905090565b60025481565b60008060008060006001549450600254935060025460015461032b9190610725565b92506103356101b9565b915060035490509091929394565b61034b6103c9565b600073ffffffffffffffffffffffffffffffffffffffff168173ffffffffffffffffffffffffffffffffffffffff16036103bd5760006040517f1e4fbdf70000000000000000000000000000000000000000000000000000000081526004016103b4919061062f565b60405180910390fd5b6103c681610450565b50565b6103d1610514565b73ffffffffffffffffffffffffffffffffffffffff166103ef6102da565b73ffffffffffffffffffffffffffffffffffffffff161461044e57610412610514565b6040517f118cdaa7000000000000000000000000000000000000000000000000000000008152600401610445919061062f565b60405180910390fd5b565b60008060009054906101000a900473ffffffffffffffffffffffffffffffffffffffff169050816000806101000a81548173ffffffffffffffffffffffffffffffffffffffff021916908373ffffffffffffffffffffffffffffffffffffffff1602179055508173ffffffffffffffffffffffffffffffffffffffff168173ffffffffffffffffffffffffffffffffffffffff167f8be0079c531659141344cd1fd0a4f28419497f9722a3daafe3b4186f6b6457e060405160405180910390a35050565b600033905090565b6000819050919050565b61052f8161051c565b82525050565b600060208201905061054a6000830184610526565b92915050565b600080fd5b61055e8161051c565b811461056957600080fd5b50565b60008135905061057b81610555565b92915050565b6000806040838503121561059857610597610550565b5b60006105a68582860161056c565b92505060206105b78582860161056c565b9150509250929050565b6000602082840312156105d7576105d6610550565b5b60006105e58482850161056c565b91505092915050565b600073ffffffffffffffffffffffffffffffffffffffff82169050919050565b6000610619826105ee565b9050919050565b6106298161060e565b82525050565b60006020820190506106446000830184610620565b92915050565b600060a08201905061065f6000830188610526565b61066c6020830187610526565b6106796040830186610526565b6106866060830185610526565b6106936080830184610526565b9695505050505050565b6106a68161060e565b81146106b157600080fd5b50565b6000813590506106c38161069d565b92915050565b6000602082840312156106df576106de610550565b5b60006106ed848285016106b4565b91505092915050565b7f4e487b7100000000000000000000000000000000000000000000000000000000600052601160045260246000fd5b60006107308261051c565b915061073b8361051c565b9250828201905080821115610753576107526106f6565b5b92915050565b7f4e487b7100000000000000000000000000000000000000000000000000000000600052601260045260246000fd5b60006107938261051c565b915061079e8361051c565b9250826107ae576107ad610759565b5b828204905092915050565b60006107c48261051c565b91506107cf8361051c565b92508282026107dd8161051c565b915082820484148315176107f4576107f36106f6565b5b5092915050565b60006060820190506108106000830186610526565b61081d6020830185610526565b61082a6040830184610526565b94935050505056fea264697066735822122021a920e303243e5d176d93d3db5d3e88dd94e3d84e741f2d21a24f236b14172064736f6c634300081c0033",
  "linkReferences": {},
  "deployedLinkReferences": {}
}