{
  "_format": "hh-sol-artifact-1",
  "contractName": "CopperTokenV2",
  "sourceName": "contracts/CopperTokenV2.sol",
  "abi": [
    {
      "inputs": [],
      "stateMutability": "nonpayable",
      "type": "constructor"
    },
    {
      "inputs": [
        {
          "internalType": "address",
          "name": "spender",
          "type": "address"
        },
        {
          "internalType": "uint256",
          "name": "allowance",
          "type": "uint256"
        },
        {
          "internalType": "uint256",
          "name": "needed",
          "type": "uint256"
        }
      ],
      "name": "ERC20InsufficientAllowance",
      "type": "error"
    },
    {
      "inputs": [
        {
          "internalType": "address",
          "name": "sender",
          "type": "address"
        },
        {
          "internalType": "uint256",
          "name": "balance",
          "type": "uint256"
        },
        {
          "internalType": "uint256",
          "name": "needed",
          "type": "uint256"
        }
      ],
      "name": "ERC20InsufficientBalance",
      "type": "error"
    },
    {
      "inputs": [
        {
          "internalType": "address",
          "name": "approver",
          "type": "address"
        }
      ],
      "name": "ERC20InvalidApprover",
      "type": "error"
    },
    {
      "inputs": [
        {
          "internalType": "address",
          "name": "receiver",
          "type": "address"
        }
      ],
      "name": "ERC20InvalidReceiver",
      "type": "error"
    },
    {
      "inputs": [
        {
          "internalType": "address",
          "name": "sender",
          "type": "address"
        }
      ],
      "name": "ERC20InvalidSender",
      "type": "error"
    },
    {
      "inputs": [
        {
          "internalType": "address",
          "name": "spender",
          "type": "address"
        }
      ],
      "name": "ERC20InvalidSpender",
      "type": "error"
    },
    {
      "inputs": [
        {
          "internalType": "address",
          "name": "owner",
          "type": "address"
        }
      ],
      "name": "OwnableInvalidOwner",
      "type": "error"
    },
    {
      "inputs": [
        {
          "internalType": "address",
          "name": "account",
          "type": "address"
        }
      ],
      "name": "OwnableUnauthorizedAccount",
      "type": "error"
    },
    {
      "anonymous": false,
      "inputs": [
        {
          "indexed": true,
          "internalType": "address",
          "name": "owner",
          "type": "address"
        },
        {
          "indexed": true,
          "internalType": "address",
          "name": "spender",
          "type": "address"
        },
        {
          "indexed": false,
          "internalType": "uint256",
          "name": "value",
          "type": "uint256"
        }
      ],
      "name": "Approval",
      "type": "event"
    },
    {
      "anonymous": false,
      "inputs": [
        {
          "indexed": true,
          "internalType": "address",
          "name": "to",
          "type": "address"
        },
        {
          "indexed": false,
          "internalType": "uint256",
          "name": "usdAmount",
          "type": "uint256"
        },
        {
          "indexed": false,
          "internalType": "uint256",
          "name": "tokenAmount",
          "type": "uint256"
        }
      ],
      "name": "Minted",
      "type": "event"
    },
    {
      "anonymous": false,
      "inputs": [
        {
          "indexed": true,
          "internalType": "address",
          "name": "previousOwner",
          "type": "address"
        },
        {
          "indexed": true,
          "internalType": "address",
          "name": "newOwner",
          "type": "address"
        }
      ],
      "name": "OwnershipTransferred",
      "type": "event"
    },
    {
      "anonymous": false,
      "inputs": [
        {
          "indexed": false,
          "internalType": "uint256",
          "name": "newPrice",
          "type": "uint256"
        },
        {
          "indexed": false,
          "internalType": "uint256",
          "name": "timestamp",
          "type": "uint256"
        }
      ],
      "name": "PriceUpdated",
      "type": "event"
    },
    {
      "anonymous": false,
      "inputs": [
        {
          "indexed": true,
          "internalType": "address",
          "name": "from",
          "type": "address"
        },
        {
          "indexed": true,
          "internalType": "address",
          "name": "to",
          "type": "address"
        },
        {
          "indexed": false,
          "internalType": "uint256",
          "name": "value",
          "type": "uint256"
        }
      ],
      "name": "Transfer",
      "type": "event"
    },
    {
      "inputs": [],
      "name": "PRICE_DECIMALS",
      "outputs": [
        {
          "internalType": "uint256",
          "name": "",
          "type": "uint256"
        }
      ],
      "stateMutability": "view",
      "type": "function"
    },
    {
      "inputs": [],
      "name": "TOKEN_DECIMALS",
      "outputs": [
        {
          "internalType": "uint256",
          "name": "",
          "type": "uint256"
        }
      ],
      "stateMutability": "view",
      "type": "function"
    },
    {
      "inputs": [
        {
          "internalType": "address",
          "name": "owner",
          "type": "address"
        },
        {
          "internalType": "address",
          "name": "spender",
          "type": "address"
        }
      ],
      "name": "allowance",
      "outputs": [
        {
          "internalType": "uint256",
          "name": "",
          "type": "uint256"
        }
      ],
      "stateMutability": "view",
      "type": "function"
    },
    {
      "inputs": [
        {
          "internalType": "address",
          "name": "spender",
          "type": "address"
        },
        {
          "internalType": "uint256",
          "name": "value",
          "type": "uint256"
        }
      ],
      "name": "approve",
      "outputs": [
        {
          "internalType": "bool",
          "name": "",
          "type": "bool"
        }
      ],
      "stateMutability": "nonpayable",
      "type": "function"
    },
    {
      "inputs": [
        {
          "internalType": "address",
          "name": "account",
          "type": "address"
        }
      ],
      "name": "balanceOf",
      "outputs": [
        {
          "internalType": "uint256",
          "name": "",
          "type": "uint256"
        }
      ],
      "stateMutability": "view",
      "type": "function"
    },
    {
      "inputs": [
        {
          "internalType": "uint256",
          "name": "tokenAmount",
          "type": "uint256"
        }
      ],
      "name": "burn",
      "outputs": [],
      "stateMutability": "nonpayable",
      "type": "function"
    },
    {
      "inputs": [
        {
          "internalType": "uint256",
          "name": "usdAmount",
          "type": "uint256"
        }
      ],
      "name": "calculateTokenAmount",
      "outputs": [
        {
          "internalType": "uint256",
          "name": "",
          "type": "uint256"
        }
      ],
      "stateMutability": "view",
      "type": "function"
    },
    {
      "inputs": [],
      "name": "copperPrice",
      "outputs": [
        {
          "internalType": "uint256",
          "name": "",
          "type": "uint256"
        }
      ],
      "stateMutability": "view",
      "type": "function"
    },
    {
      "inputs": [],
      "name": "decimals",
      "outputs": [
        {
          "internalType": "uint8",
          "name": "",
          "type": "uint8"
        }
      ],
      "stateMutability": "view",
      "type": "function"
    },
    {
      "inputs": [],
      "name": "getCopperPriceInUSD",
      "outputs": [
        {
          "internalType": "uint256",
          "name": "",
          "type": "uint256"
        }
      ],
      "stateMutability": "view",
      "type": "function"
    },
    {
      "inputs": [],
      "name": "getLatestPrice",
      "outputs": [
        {
          "internalType": "uint256",
          "name": "",
          "type": "uint256"
        }
      ],
      "stateMutability": "view",
      "type": "function"
    },
    {
      "inputs": [],
      "name": "getTreasuryInfo",
      "outputs": [
        {
          "internalType": "uint256",
          "name": "_copperPrice",
          "type": "uint256"
        },
        {
          "internalType": "uint256",
          "name": "_nav",
          "type": "uint256"
        },
        {
          "internalType": "uint256",
          "name": "_totalSupply",
          "type": "uint256"
        },
        {
          "internalType": "uint256",
          "name": "_lastUpdate",
          "type": "uint256"
        }
      ],
      "stateMutability": "view",
      "type": "function"
    },
    {
      "inputs": [],
      "name": "lastUpdateTime",
      "outputs": [
        {
          "internalType": "uint256",
          "name": "",
          "type": "uint256"
        }
      ],
      "stateMutability": "view",
      "type": "function"
    },
    {
      "inputs": [
        {
          "internalType": "address",
          "name": "to",
          "type": "address"
        },
        {
          "internalType": "uint256",
          "name": "usdAmount",
          "type": "uint256"
        }
      ],
      "name": "mint",
      "outputs": [],
      "stateMutability": "nonpayable",
      "type": "function"
    },
    {
      "inputs": [],
      "name": "name",
      "outputs": [
        {
          "internalType": "string",
          "name": "",
          "type": "string"
        }
      ],
      "stateMutability": "view",
      "type": "function"
    },
    {
      "inputs": [],
      "name": "owner",
      "outputs": [
        {
          "internalType": "address",
          "name": "",
          "type": "address"
        }
      ],
      "stateMutability": "view",
      "type": "function"
    },
    {
      "inputs": [],
      "name": "renounceOwnership",
      "outputs": [],
      "stateMutability": "nonpayable",
      "type": "function"
    },
    {
      "inputs": [
        {
          "internalType": "address",
          "name": "_newPriceFeed",
          "type": "address"
        }
      ],
      "name": "setPriceFeed",
      "outputs": [],
      "stateMutability": "nonpayable",
      "type": "function"
    },
    {
      "inputs": [],
      "name": "symbol",
      "outputs": [
        {
          "internalType": "string",
          "name": "",
          "type": "string"
        }
      ],
      "stateMutability": "view",
      "type": "function"
    },
    {
      "inputs": [],
      "name": "totalSupply",
      "outputs": [
        {
          "internalType": "uint256",
          "name": "",
          "type": "uint256"
        }
      ],
      "stateMutability": "view",
      "type": "function"
    },
    {
      "inputs": [
        {
          "internalType": "address",
          "name": "to",
          "type": "address"
        },
        {
          "internalType": "uint256",
          "name": "value",
          "type": "uint256"
        }
      ],
      "name": "transfer",
      "outputs": [
        {
          "internalType": "bool",
          "name": "",
          "type": "bool"
        }
      ],
      "stateMutability": "nonpayable",
      "type": "function"
    },
    {
      "inputs": [
        {
          "internalType": "address",
          "name": "from",
          "type": "address"
        },
        {
          "internalType": "address",
          "name": "to",
          "type": "address"
        },
        {
          "internalType": "uint256",
          "name": "value",
          "type": "uint256"
        }
      ],
      "name": "transferFrom",
      "outputs": [
        {
          "internalType": "bool",
          "name": "",
          "type": "bool"
        }
      ],
      "stateMutability": "nonpayable",
      "type": "function"
    },
    {
      "inputs": [
        {
          "internalType": "address",
          "name": "newOwner",
          "type": "address"
        }
      ],
      "name": "transferOwnership",
      "outputs": [],
      "stateMutability": "nonpayable",
      "type": "function"
    },
    {
      "inputs": [],
      "name": "updatePrice",
      "outputs": [],
      "stateMutability": "nonpayable",
      "type": "function"
    }
  ],
  "bytecode": "0x608060405234801561001057600080fd5b50336040518060400160405280600c81526020017f436f7070657220546f6b656e00000000000000000000000000000000000000008152506040518060400160405280600481526020017f4142434f00000000000000000000000000000000000000000000000000000000815250816003908161008d9190610778565b50806004908161009d9190610778565b505050600073ffffffffffffffffffffffffffffffffffffffff168173ffffffffffffffffffffffffffffffffffffffff16036101125760006040517f1e4fbdf7000000000000000000000000000000000000000000000000000000008152600401610109919061088b565b60405180910390fd5b610121816101b560201b60201c565b50735741306c21795fdcbb9b265ea0255f499dfe515c600660006101000a81548173ffffffffffffffffffffffffffffffffffffffff021916908373ffffffffffffffffffffffffffffffffffffffff1602179055506714d1120d7b1600006007819055506101b0336012600a6101989190610a08565b6127106101a59190610a53565b61027b60201b60201c565b610b2a565b6000600560009054906101000a900473ffffffffffffffffffffffffffffffffffffffff16905081600560006101000a81548173ffffffffffffffffffffffffffffffffffffffff021916908373ffffffffffffffffffffffffffffffffffffffff1602179055508173ffffffffffffffffffffffffffffffffffffffff168173ffffffffffffffffffffffffffffffffffffffff167f8be0079c531659141344cd1fd0a4f28419497f9722a3daafe3b4186f6b6457e060405160405180910390a35050565b600073ffffffffffffffffffffffffffffffffffffffff168273ffffffffffffffffffffffffffffffffffffffff16036102ed5760006040517fec442f050000000000000000000000000000000000000000000000000000000081526004016102e4919061088b565b60405180910390fd5b6102ff6000838361030360201b60201c565b5050565b600073ffffffffffffffffffffffffffffffffffffffff168373ffffffffffffffffffffffffffffffffffffffff16036103555780600260008282546103499190610a95565b92505081905550610428565b60008060008573ffffffffffffffffffffffffffffffffffffffff1673ffffffffffffffffffffffffffffffffffffffff168152602001908152602001600020549050818110156103e1578381836040517fe450d38c0000000000000000000000000000000000000000000000000000000081526004016103d893929190610ad8565b60405180910390fd5b8181036000808673ffffffffffffffffffffffffffffffffffffffff1673ffffffffffffffffffffffffffffffffffffffff16815260200190815260200160002081905550505b600073ffffffffffffffffffffffffffffffffffffffff168273ffffffffffffffffffffffffffffffffffffffff160361047157806002600082825403925050819055506104be565b806000808473ffffffffffffffffffffffffffffffffffffffff1673ffffffffffffffffffffffffffffffffffffffff168152602001908152602001600020600082825401925050819055505b8173ffffffffffffffffffffffffffffffffffffffff168373ffffffffffffffffffffffffffffffffffffffff167fddf252ad1be2c89b69c2b068fc378daa952ba7f163c4a11628f55a4df523b3ef8360405161051b9190610b0f565b60405180910390a3505050565b600081519050919050565b7f4e487b7100000000000000000000000000000000000000000000000000000000600052604160045260246000fd5b7f4e487b7100000000000000000000000000000000000000000000000000000000600052602260045260246000fd5b600060028204905060018216806105a957607f821691505b6020821081036105bc576105bb610562565b5b50919050565b60008190508160005260206000209050919050565b60006020601f8301049050919050565b600082821b905092915050565b6000600883026106247fffffffffffffffffffffffffffffffffffffffffffffffffffffffffffffffff826105e7565b61062e86836105e7565b95508019841693508086168417925050509392505050565b6000819050919050565b6000819050919050565b600061067561067061066b84610646565b610650565b610646565b9050919050565b6000819050919050565b61068f8361065a565b6106a361069b8261067c565b8484546105f4565b825550505050565b600090565b6106b86106ab565b6106c3818484610686565b505050565b5b818110156106e7576106dc6000826106b0565b6001810190506106c9565b5050565b601f82111561072c576106fd816105c2565b610706846105d7565b81016020851015610715578190505b610729610721856105d7565b8301826106c8565b50505b505050565b600082821c905092915050565b600061074f60001984600802610731565b1980831691505092915050565b6000610768838361073e565b9150826002028217905092915050565b61078182610528565b67ffffffffffffffff81111561079a57610799610533565b5b6107a48254610591565b6107af8282856106eb565b600060209050601f8311600181146107e257600084156107d0578287015190505b6107da858261075c565b865550610842565b601f1984166107f0866105c2565b60005b82811015610818578489015182556001820191506020850194506020810190506107f3565b868310156108355784890151610831601f89168261073e565b8355505b6001600288020188555050505b505050505050565b600073ffffffffffffffffffffffffffffffffffffffff82169050919050565b60006108758261084a565b9050919050565b6108858161086a565b82525050565b60006020820190506108a0600083018461087c565b92915050565b7f4e487b7100000000000000000000000000000000000000000000000000000000600052601160045260246000fd5b60008160011c9050919050565b6000808291508390505b600185111561092c57808604811115610908576109076108a6565b5b60018516156109175780820291505b8081029050610925856108d5565b94506108ec565b94509492505050565b6000826109455760019050610a01565b816109535760009050610a01565b81600181146109695760028114610973576109a2565b6001915050610a01565b60ff841115610985576109846108a6565b5b8360020a91508482111561099c5761099b6108a6565b5b50610a01565b5060208310610133831016604e8410600b84101617156109d75782820a9050838111156109d2576109d16108a6565b5b610a01565b6109e484848460016108e2565b925090508184048111156109fb576109fa6108a6565b5b81810290505b9392505050565b6000610a1382610646565b9150610a1e83610646565b9250610a4b7fffffffffffffffffffffffffffffffffffffffffffffffffffffffffffffffff8484610935565b905092915050565b6000610a5e82610646565b9150610a6983610646565b9250828202610a7781610646565b91508282048414831517610a8e57610a8d6108a6565b5b5092915050565b6000610aa082610646565b9150610aab83610646565b9250828201905080821115610ac357610ac26108a6565b5b92915050565b610ad281610646565b82525050565b6000606082019050610aed600083018661087c565b610afa6020830185610ac9565b610b076040830184610ac9565b949350505050565b6000602082019050610b246000830184610ac9565b92915050565b611e1680610b396000396000f3fe608060405234801561001057600080fd5b50600436106101585760003560e01c8063724e78da116100c3578063c29394711161007c578063c2939471146103a5578063c8f33c91146103c6578063dd62ed3e146103e4578063e2a92a7c14610414578063f1a640f814610432578063f2fde38b1461045057610158565b8063724e78da146102cf5780638da5cb5b146102eb5780638e15f4731461030957806395d89b4114610327578063a24bcf4614610345578063a9059cbb1461037557610158565b806342966c681161011557806342966c68146102335780635b7f415c1461024f5780635d65982c1461026d578063673a7e281461028b57806370a0823114610295578063715018a6146102c557610158565b806306fdde031461015d578063095ea7b31461017b57806318160ddd146101ab57806323b872dd146101c9578063313ce567146101f957806340c10f1914610217575b600080fd5b61016561046c565b6040516101729190611457565b60405180910390f35b61019560048036038101906101909190611512565b6104fe565b6040516101a2919061156d565b60405180910390f35b6101b3610521565b6040516101c09190611597565b60405180910390f35b6101e360048036038101906101de91906115b2565b61052b565b6040516101f0919061156d565b60405180910390f35b61020161055a565b60405161020e9190611621565b60405180910390f35b610231600480360381019061022c9190611512565b610563565b005b61024d6004803603810190610248919061163c565b61065d565b005b6102576106ad565b6040516102649190611597565b60405180910390f35b6102756106b2565b6040516102829190611597565b60405180910390f35b6102936106b8565b005b6102af60048036038101906102aa9190611669565b61070e565b6040516102bc9190611597565b60405180910390f35b6102cd610756565b005b6102e960048036038101906102e49190611669565b61076a565b005b6102f3610825565b60405161030091906116a5565b60405180910390f35b61031161084f565b60405161031e9190611597565b60405180910390f35b61032f610933565b60405161033c9190611457565b60405180910390f35b61035f600480360381019061035a919061163c565b6109c5565b60405161036c9190611597565b60405180910390f35b61038f600480360381019061038a9190611512565b610a41565b60405161039c919061156d565b60405180910390f35b6103ad610a64565b6040516103bd94939291906116c0565b60405180910390f35b6103ce610a8c565b6040516103db9190611597565b60405180910390f35b6103fe60048036038101906103f99190611705565b610a92565b60405161040b9190611597565b60405180910390f35b61041c610b19565b6040516104299190611597565b60405180910390f35b61043a610b4c565b6040516104479190611597565b60405180910390f35b61046a60048036038101906104659190611669565b610b51565b005b60606003805461047b90611774565b80601f01602080910402602001604051908101604052809291908181526020018280546104a790611774565b80156104f45780601f106104c9576101008083540402835291602001916104f4565b820191906000526020600020905b8154815290600101906020018083116104d757829003601f168201915b5050505050905090565b600080610509610bd7565b9050610516818585610bdf565b600191505092915050565b6000600254905090565b600080610536610bd7565b9050610543858285610bf1565b61054e858585610c86565b60019150509392505050565b60006012905090565b61056b610d7a565b600081116105ae576040517f08c379a00000000000000000000000000000000000000000000000000000000081526004016105a5906117f1565b60405180910390fd5b60006105b9826109c5565b9050600081116105fe576040517f08c379a00000000000000000000000000000000000000000000000000000000081526004016105f59061185d565b60405180910390fd5b6106088382610e01565b8273ffffffffffffffffffffffffffffffffffffffff167f25b428dfde728ccfaddad7e29e4ac23c24ed7fd1a6e3e3f91894a9a073f5dfff838360405161065092919061187d565b60405180910390a2505050565b600081116106a0576040517f08c379a0000000000000000000000000000000000000000000000000000000008152600401610697906117f1565b60405180910390fd5b6106aa3382610e83565b50565b601281565b60075481565b60006106c261084f565b905080600781905550426008819055507f945c1c4e99aa89f648fbfe3df471b916f719e16d960fcec0737d4d56bd696838814260405161070392919061187d565b60405180910390a150565b60008060008373ffffffffffffffffffffffffffffffffffffffff1673ffffffffffffffffffffffffffffffffffffffff168152602001908152602001600020549050919050565b61075e610d7a565b6107686000610f05565b565b610772610d7a565b600073ffffffffffffffffffffffffffffffffffffffff168173ffffffffffffffffffffffffffffffffffffffff16036107e1576040517f08c379a00000000000000000000000000000000000000000000000000000000081526004016107d8906118f2565b60405180910390fd5b80600660006101000a81548173ffffffffffffffffffffffffffffffffffffffff021916908373ffffffffffffffffffffffffffffffffffffffff16021790555050565b6000600560009054906101000a900473ffffffffffffffffffffffffffffffffffffffff16905090565b600080600660009054906101000a900473ffffffffffffffffffffffffffffffffffffffff1673ffffffffffffffffffffffffffffffffffffffff1663feaf968c6040518163ffffffff1660e01b815260040160a060405180830381865afa1580156108bf573d6000803e3d6000fd5b505050506040513d601f19601f820116820180604052508101906108e3919061199f565b5050509150506000811361092c576040517f08c379a000000000000000000000000000000000000000000000000000000000815260040161092390611a66565b60405180910390fd5b8091505090565b60606004805461094290611774565b80601f016020809104026020016040519081016040528092919081815260200182805461096e90611774565b80156109bb5780601f10610990576101008083540402835291602001916109bb565b820191906000526020600020905b81548152906001019060200180831161099e57829003601f168201915b5050505050905090565b6000806109d0610b19565b905060008111610a15576040517f08c379a0000000000000000000000000000000000000000000000000000000008152600401610a0c90611ad2565b60405180910390fd5b806012600a610a249190611c54565b84610a2f9190611c9f565b610a399190611d10565b915050919050565b600080610a4c610bd7565b9050610a59818585610c86565b600191505092915050565b600080600080610a72610b19565b9350839250610a7f610521565b9150600854905090919293565b60085481565b6000600160008473ffffffffffffffffffffffffffffffffffffffff1673ffffffffffffffffffffffffffffffffffffffff16815260200190815260200160002060008373ffffffffffffffffffffffffffffffffffffffff1673ffffffffffffffffffffffffffffffffffffffff16815260200190815260200160002054905092915050565b600080600754905060086012610b2f9190611d41565b600a610b3b9190611c54565b81610b469190611c9f565b91505090565b600881565b610b59610d7a565b600073ffffffffffffffffffffffffffffffffffffffff168173ffffffffffffffffffffffffffffffffffffffff1603610bcb5760006040517f1e4fbdf7000000000000000000000000000000000000000000000000000000008152600401610bc291906116a5565b60405180910390fd5b610bd481610f05565b50565b600033905090565b610bec8383836001610fcb565b505050565b6000610bfd8484610a92565b90507fffffffffffffffffffffffffffffffffffffffffffffffffffffffffffffffff811015610c805781811015610c70578281836040517ffb8f41b2000000000000000000000000000000000000000000000000000000008152600401610c6793929190611d75565b60405180910390fd5b610c7f84848484036000610fcb565b5b50505050565b600073ffffffffffffffffffffffffffffffffffffffff168373ffffffffffffffffffffffffffffffffffffffff1603610cf85760006040517f96c6fd1e000000000000000000000000000000000000000000000000000000008152600401610cef91906116a5565b60405180910390fd5b600073ffffffffffffffffffffffffffffffffffffffff168273ffffffffffffffffffffffffffffffffffffffff1603610d6a5760006040517fec442f05000000000000000000000000000000000000000000000000000000008152600401610d6191906116a5565b60405180910390fd5b610d758383836111a2565b505050565b610d82610bd7565b73ffffffffffffffffffffffffffffffffffffffff16610da0610825565b73ffffffffffffffffffffffffffffffffffffffff1614610dff57610dc3610bd7565b6040517f118cdaa7000000000000000000000000000000000000000000000000000000008152600401610df691906116a5565b60405180910390fd5b565b600073ffffffffffffffffffffffffffffffffffffffff168273ffffffffffffffffffffffffffffffffffffffff1603610e735760006040517fec442f05000000000000000000000000000000000000000000000000000000008152600401610e6a91906116a5565b60405180910390fd5b610e7f600083836111a2565b5050565b600073ffffffffffffffffffffffffffffffffffffffff168273ffffffffffffffffffffffffffffffffffffffff1603610ef55760006040517f96c6fd1e000000000000000000000000000000000000000000000000000000008152600401610eec91906116a5565b60405180910390fd5b610f01826000836111a2565b5050565b6000600560009054906101000a900473ffffffffffffffffffffffffffffffffffffffff16905081600560006101000a81548173ffffffffffffffffffffffffffffffffffffffff021916908373ffffffffffffffffffffffffffffffffffffffff1602179055508173ffffffffffffffffffffffffffffffffffffffff168173ffffffffffffffffffffffffffffffffffffffff167f8be0079c531659141344cd1fd0a4f28419497f9722a3daafe3b4186f6b6457e060405160405180910390a35050565b600073ffffffffffffffffffffffffffffffffffffffff168473ffffffffffffffffffffffffffffffffffffffff160361103d5760006040517fe602df0500000000000000000000000000000000000000000000000000000000815260040161103491906116a5565b60405180910390fd5b600073ffffffffffffffffffffffffffffffffffffffff168373ffffffffffffffffffffffffffffffffffffffff16036110af5760006040517f94280d620000000000000000000000000000000000000000000000000000000081526004016110a691906116a5565b60405180910390fd5b81600160008673ffffffffffffffffffffffffffffffffffffffff1673ffffffffffffffffffffffffffffffffffffffff16815260200190815260200160002060008573ffffffffffffffffffffffffffffffffffffffff1673ffffffffffffffffffffffffffffffffffffffff16815260200190815260200160002081905550801561119c578273ffffffffffffffffffffffffffffffffffffffff168473ffffffffffffffffffffffffffffffffffffffff167f8c5be1e5ebec7d5bd14f71427d1e84f3dd0314c0f7b2291e5b200ac8c7c3b925846040516111939190611597565b60405180910390a35b50505050565b600073ffffffffffffffffffffffffffffffffffffffff168373ffffffffffffffffffffffffffffffffffffffff16036111f45780600260008282546111e89190611dac565b925050819055506112c7565b60008060008573ffffffffffffffffffffffffffffffffffffffff1673ffffffffffffffffffffffffffffffffffffffff16815260200190815260200160002054905081811015611280578381836040517fe450d38c00000000000000000000000000000000000000000000000000000000815260040161127793929190611d75565b60405180910390fd5b8181036000808673ffffffffffffffffffffffffffffffffffffffff1673ffffffffffffffffffffffffffffffffffffffff16815260200190815260200160002081905550505b600073ffffffffffffffffffffffffffffffffffffffff168273ffffffffffffffffffffffffffffffffffffffff1603611310578060026000828254039250508190555061135d565b806000808473ffffffffffffffffffffffffffffffffffffffff1673ffffffffffffffffffffffffffffffffffffffff168152602001908152602001600020600082825401925050819055505b8173ffffffffffffffffffffffffffffffffffffffff168373ffffffffffffffffffffffffffffffffffffffff167fddf252ad1be2c89b69c2b068fc378daa952ba7f163c4a11628f55a4df523b3ef836040516113ba9190611597565b60405180910390a3505050565b600081519050919050565b600082825260208201905092915050565b60005b838110156114015780820151818401526020810190506113e6565b60008484015250505050565b6000601f19601f8301169050919050565b6000611429826113c7565b61143381856113d2565b93506114438185602086016113e3565b61144c8161140d565b840191505092915050565b60006020820190508181036000830152611471818461141e565b905092915050565b600080fd5b600073ffffffffffffffffffffffffffffffffffffffff82169050919050565b60006114a98261147e565b9050919050565b6114b98161149e565b81146114c457600080fd5b50565b6000813590506114d6816114b0565b92915050565b6000819050919050565b6114ef816114dc565b81146114fa57600080fd5b50565b60008135905061150c816114e6565b92915050565b6000806040838503121561152957611528611479565b5b6000611537858286016114c7565b9250506020611548858286016114fd565b9150509250929050565b60008115159050919050565b61156781611552565b82525050565b6000602082019050611582600083018461155e565b92915050565b611591816114dc565b82525050565b60006020820190506115ac6000830184611588565b92915050565b6000806000606084860312156115cb576115ca611479565b5b60006115d9868287016114c7565b93505060206115ea868287016114c7565b92505060406115fb868287016114fd565b9150509250925092565b600060ff82169050919050565b61161b81611605565b82525050565b60006020820190506116366000830184611612565b92915050565b60006020828403121561165257611651611479565b5b6000611660848285016114fd565b91505092915050565b60006020828403121561167f5761167e611479565b5b600061168d848285016114c7565b91505092915050565b61169f8161149e565b82525050565b60006020820190506116ba6000830184611696565b92915050565b60006080820190506116d56000830187611588565b6116e26020830186611588565b6116ef6040830185611588565b6116fc6060830184611588565b95945050505050565b6000806040838503121561171c5761171b611479565b5b600061172a858286016114c7565b925050602061173b858286016114c7565b9150509250929050565b7f4e487b7100000000000000000000000000000000000000000000000000000000600052602260045260246000fd5b6000600282049050600182168061178c57607f821691505b60208210810361179f5761179e611745565b5b50919050565b7f416d6f756e74206d7573742062652067726561746572207468616e2030000000600082015250565b60006117db601d836113d2565b91506117e6826117a5565b602082019050919050565b6000602082019050818103600083015261180a816117ce565b9050919050565b7f546f6b656e20616d6f756e74206973207a65726f000000000000000000000000600082015250565b60006118476014836113d2565b915061185282611811565b602082019050919050565b600060208201905081810360008301526118768161183a565b9050919050565b60006040820190506118926000830185611588565b61189f6020830184611588565b9392505050565b7f496e76616c696420616464726573730000000000000000000000000000000000600082015250565b60006118dc600f836113d2565b91506118e7826118a6565b602082019050919050565b6000602082019050818103600083015261190b816118cf565b9050919050565b600069ffffffffffffffffffff82169050919050565b61193181611912565b811461193c57600080fd5b50565b60008151905061194e81611928565b92915050565b6000819050919050565b61196781611954565b811461197257600080fd5b50565b6000815190506119848161195e565b92915050565b600081519050611999816114e6565b92915050565b600080600080600060a086880312156119bb576119ba611479565b5b60006119c98882890161193f565b95505060206119da88828901611975565b94505060406119eb8882890161198a565b93505060606119fc8882890161198a565b9250506080611a0d8882890161193f565b9150509295509295909350565b7f496e76616c696420707269636500000000000000000000000000000000000000600082015250565b6000611a50600d836113d2565b9150611a5b82611a1a565b602082019050919050565b60006020820190508181036000830152611a7f81611a43565b9050919050565b7f5072696365206e6f742073657400000000000000000000000000000000000000600082015250565b6000611abc600d836113d2565b9150611ac782611a86565b602082019050919050565b60006020820190508181036000830152611aeb81611aaf565b9050919050565b7f4e487b7100000000000000000000000000000000000000000000000000000000600052601160045260246000fd5b60008160011c9050919050565b6000808291508390505b6001851115611b7857808604811115611b5457611b53611af2565b5b6001851615611b635780820291505b8081029050611b7185611b21565b9450611b38565b94509492505050565b600082611b915760019050611c4d565b81611b9f5760009050611c4d565b8160018114611bb55760028114611bbf57611bee565b6001915050611c4d565b60ff841115611bd157611bd0611af2565b5b8360020a915084821115611be857611be7611af2565b5b50611c4d565b5060208310610133831016604e8410600b8410161715611c235782820a905083811115611c1e57611c1d611af2565b5b611c4d565b611c308484846001611b2e565b92509050818404811115611c4757611c46611af2565b5b81810290505b9392505050565b6000611c5f826114dc565b9150611c6a836114dc565b9250611c977fffffffffffffffffffffffffffffffffffffffffffffffffffffffffffffffff8484611b81565b905092915050565b6000611caa826114dc565b9150611cb5836114dc565b9250828202611cc3816114dc565b91508282048414831517611cda57611cd9611af2565b5b5092915050565b7f4e487b7100000000000000000000000000000000000000000000000000000000600052601260045260246000fd5b6000611d1b826114dc565b9150611d26836114dc565b925082611d3657611d35611ce1565b5b828204905092915050565b6000611d4c826114dc565b9150611d57836114dc565b9250828203905081811115611d6f57611d6e611af2565b5b92915050565b6000606082019050611d8a6000830186611696565b611d976020830185611588565b611da46040830184611588565b949350505050565b6000611db7826114dc565b9150611dc2836114dc565b9250828201905080821115611dda57611dd9611af2565b5b9291505056fea26469706673582212206dc2f1ccaf7d66171ee67e8d4f87ceeac0002e95cd6a1059df1f4822990860ea64736f6c634300081c0033",
  "linkReferences": {},
  "deployedLinkReferences": {}
}